:020000040800F2
:1000000028C00420C5020008AB070108ADFA0008AB
:10001000A907010875070008133E01080000000049
:100020000000000000000000000000003D1A010870
:100030005D6B000800000000B9070108411A0108C3
:10004000DF020008DF020008DF020008DF0200080C
:10005000DF020008DF020008DF020008616B000811
:10006000BD6B0008216D00083D6D00088168000827
:10007000DF02000885680008E9690008DF0200085F
:10008000EB690008DF020008DF020008DF02000859
:10009000DF020008DF020008DF020008616D0008CF
:1000A000DF020008DF0200082D1B0108DF02000844
:1000B000DF020008DF020008DF020008D1FA0008B2
:1000C000DF020008DF020008DF020008DF0200088C
:1000D000DF02000845200108DF020008DF020008F7
:1000E000DF020008BD070108DF0200089D1B0108B0
:1000F000DF0200084D1D0108DF020008ED6900085D
:10010000DF020008DF020008311B0108DF020008DF
:10011000DF020008DF020008DF0200088D1B010873
:100120008D6A0008DF0200088F6A0008916A0008E3
:10013000D56A0008DF020008DF020008DF020008BD
:10014000DF020008DF020008DF020008AD07010837
:10015000DF020008DF0200082D6B0008DF02000844
:10016000DF020008DF020008DF020008DF020008EB
:10017000DF020008DF0200080000000000000000AD
:10018000DF020008DF020008DF020008DF020008CB
:10019000DF020008DF02000800000000DF020008A4
:1001A000DF020008DF02000800000000000000007D
:1001B000DF0200080000000000000000DF0200086D
:1001C000DF020008DF020008DF020008DF0200088B
:1001D000DF020008DF02000800F002F800F062F819
:1001E0000AA090E8000C82448344AAF10107DA4592
:1001F00001D100F057F8AFF2090EBAE80F0013F082
:10020000010F18BFFB1A43F0010318472C790100B6
:100210004C79010010F8013B0A4413F0030408BFB5
:1002200010F8014B1D1108BF10F8015B641E05D0CA
:1002300010F8016B641E01F8016BF9D1002D15D087
:1002400010F8014B03F00C030C2BA1EB04040ABFC4
:1002500010F8013BA4EB8314A4EB032405F1010384
:1002600014F8016B5B1E01F8016BF9D5914238BFA0
:1002700010F8013BD1D3704700230024002500264D
:10028000103A28BF78C1FBD8520728BF30C148BFF9
:100290000B6070471FB516F0E4FC00F0E4F81FBDDA
:1002A00010B510BD00F0FCF91146FFF7F3FF15F093
:1002B00027FA00F01AFA03B4FFF7F2FF03BC00F0CC
:1002C0001DFA00000948804709480047FEE7FEE79D
:1002D000FEE7FEE7FEE7FEE7FEE7FEE7FEE7FEE7F6
:1002E00004480549054A064B704700001D1B0108DC
:1002F000D901000828B8042028C0042028BC042004
:1003000028BC042053EA020C00F069802DE9F04B70
:100310004FF00006002B1FBFB3FA83F503FA05F474
:1003200024FA05F65E4012BF1643B2FA82F502FACD
:1003300005F4C5F120051EBF22FA05FC44EA0C04B1
:10034000203556EA044C4FEA144418BF641C4FF0A1
:1003500000084FF00009904271EB030C39D30029DB
:1003600019BFB1FA81F701FA07F6B0FA80F700FA7F
:1003700007F6C7F120071EBF20FA07FC46EA0C0665
:100380002037B6FBF4FCA7EB0507103F07F01F0B67
:10039000CBF120060CFA0BFB2CFA06F644BFB34651
:1003A0000026202FA4BF5E464FF0000B5BEA060C30
:1003B00008BF4FF0010B19EB0B09ABFB027C48EBBC
:1003C0000608C01B06FB02CC0BFB03CC71EB0C0137
:1003D000C1E70B46024641464846BDE8F08B13B5DF
:1003E0004FF000004FF00001AFF30080BDE81C406B
:1003F000704710B54C1084EA530404D54042C1F153
:10040000000138BF491E1B4204D55242C3F100030C
:1004100038BF5B1EFFF776FF14F0804F04D04042D8
:10042000C1F1000138BF491E14F0004F04D0524200
:10043000C3F1000338BF5B1E10BD00000B4910B5AF
:10044000A1F17C020A4CC2E93712372106E000EB29
:10045000104342F82130074B00FB03400B1EA1F173
:100460000101F4DC10BD0120E8E700005CB70420C6
:10047000E119D666CD0D010010B5431E13F8014FEA
:10048000002CFBD105E011F8014B002C03F8014BC7
:1004900003D0521EF7D20021197010BD10B5431CB5
:1004A00002E010F8011B71B18107FAD14FF001325F
:1004B00002C88C1A8C4314EAC211F9D0C01A0A0679
:1004C00003D0C01E10BDC01A10BD0A0401D0801E8A
:1004D00010BD0902FCD0401E10BD421E12F8013FA3
:1004E000002BFBD111F8013B002B02F8013BF9D1A5
:1004F0007047032A40F2308010F0030C00F01580A2
:1005000011F8013BBCF1020F624498BF11F801CB16
:1005100000F8013B38BF11F8013BA2F1040298BF7B
:1005200000F801CB38BF00F8013B11F0030300F0E5
:100530002580083AC0F0088051F8043B083A51F889
:1005400004CBA0E80810F5E7121D5CBF51F8043B8E
:1005500040F8043BAFF30080D20724BF11F8013B01
:1005600011F801CB48BF11F8012B24BF00F8013B63
:1005700000F801CB48BF00F8012B704710B5203AB6
:10058000C0F00B80B1E81850203AA0E81850B1E84C
:100590001850A0E81850BFF4F5AF5FEA027C24BF02
:1005A000B1E81850A0E8185044BF18C918C0BDE8F9
:1005B00010405FEA827C24BF51F8043B40F8043BC2
:1005C00008BF7047D20728BF31F8023B48BF11F877
:1005D000012B28BF20F8023B48BF00F8012B7047D1
:1005E0004FF000020429C0F0128010F0030C00F05C
:1005F0001B80CCF1040CBCF1020F18BF00F8012BDA
:10060000A8BF20F8022BA1EB0C0100F00DB85FEAA7
:10061000C17C24BF00F8012B00F8012B48BF00F873
:10062000012B70474FF0000200B5134694469646E2
:10063000203922BFA0E80C50A0E80C50B1F12001F5
:10064000BFF4F7AF090728BFA0E80C5048BF0CC0A3
:100650005DF804EB890028BF40F8042B08BF704701
:1006600048BF20F8022B11F0804F18BF00F8012B73
:10067000704770477047704710B500F009F8006880
:1006800010BD10B5044600F003F8046010BD000072
:1006900000487047C4B7042000487047C4B704201E
:1006A0007546FFF7F9FFAE4605006946534620F050
:1006B0000700854618B020B5FFF712FEBDE82040C0
:1006C0004FF000064FF000074FF000084FF0000B0E
:1006D00021F00701AC46ACE8C009ACE8C009ACE8C1
:1006E000C009ACE8C0098D46704710B50446AFF3A9
:1006F00000802046BDE81040FFF7DDBD014918200D
:10070000ABBEFEE7260002007047030900F00F00B1
:100710000A2B34BF303337330B700A2834BF3030E4
:1007200037304870022010800020704738B50E48DE
:100730000090446809F034FD4FF0E021002008618A
:100740004861886172B60948016821F003010160BF
:10075000016841F001010160054880F3088801B09B
:10076000A446BDE8304060470000FF1F003801404C
:10077000502F0020FEE7016A426A02F500524262F1
:10078000426A8A4202D3426A511A4162416B01F5C0
:1007900000514163816B01F500518163C16B01F52B
:1007A0000051C163704710B59446C0E9011C1A4658
:1007B0006146183014F034FF10BD000010B588B049
:1007C00000201A4901900290009003900490069036
:1007D000154A0790C1E900200122C1E9020208611F
:1007E000886108460AF089FF08B172B6FEE7072063
:1007F0002024CDE9000469460C480BF09BFB08B1AE
:1008000072B6FEE78020CDE9064006A907480AF047
:10081000FBFE08B172B6FEE70FF0CAFE08B003484F
:10082000BDE810400BF0AAB8000400406C3C032067
:1008300010B50446FFF7C2FF6168002009684860F0
:1008400060680068816840F201121143816060684D
:10085000806B0068016821F0010101606068806BB5
:100860000068016811F0010F04D000BF016811F0A9
:10087000010FFAD10A498160D4E90110896B096836
:10088000C860206A61684008896B096848606068D0
:10089000806B0068016841F01901016010BD000023
:1008A0004C20014030B5144D83B004460228A4BF4B
:1008B00003B030BD11A002220068009004F1910045
:1008C0008DF801000EA0694600680190284601F0ED
:1008D00027FB0C484FF4007200EB4421284601F03E
:1008E000EFFA022201A9284601F01AFB284604F07B
:1008F00012FC03B030BD000044230020AD00000016
:10090000DADA0000C408002010B5ADF5047D164CFD
:100910004FF4007215496846FFF730FE1448018A0B
:1009200080AA02F087FC44988099401A449011A054
:10093000022200688190104881A9006882902046B8
:1009400001F0EEFA4FF400726946204601F0B8FA61
:10095000022282A9204601F0E3FA204604F0DBFBE4
:100960000DF5047D10BD000044230020C4040020C8
:10097000C4A00420AD900000000900080948C06927
:10098000C1698068800800EB4000814228BF704741
:1009900005480089012818BF70470121024814F05A
:1009A000FDBD000060030020EC60002010B504468F
:1009B00091ED000A00F5D86005F027FE84ED000AED
:1009C00004F6082005F021FE41F29800B0EEC00ABE
:1009D000204405F01AFE41F2184084ED010A20443B
:1009E00005F0FAFE4FF4A250005D10F0010F1CBF9D
:1009F000012000F0AAF910BD704770B504460D46FD
:100A000091ED000A00F5D86005F0FFFDB0EEC00AD8
:100A100004F5556005F0F9FD84ED000A95ED010A35
:100A200004F6082005F0F1FD41F29800B0EEC00A8E
:100A3000204405F0EAFD84ED010A94ED000A04F576
:100A40009F5005F0C9FE41F2184094ED010A204480
:100A500005F0C2FE04F5805494F8080410F0010F6C
:100A60001CBF012000F071F994F8400410F0010F50
:100A70001CBF022000F069F970BD70B504460D4638
:100A800091ED000A00F5D86005F0BFFDB0EEC00A98
:100A900004F5556005F0B9FD84ED000A95ED010AF5
:100AA00004F6082005F0B1FD41F29800B0EEC00A4E
:100AB000204405F0AAFD84ED010A94ED000A04F536
:100AC0009F5005F089FE41F2184094ED010A204440
:100AD00005F082FE04F5805090F8081411F0010F23
:100AE0001ABF90F8400410F0010F70BD012000F013
:100AF0002CF970BD2DE9F04385B000F580570162F7
:100B0000DFF8EC800E4604460025C7F8502400BFED
:100B1000C5EB0510C0EBC000364A04EBC00909F173
:100B200030000323A2F12401CDF8008005F0CEFDB2
:100B3000D7F8500409F5556100EB452209F5D86056
:100B400004F0AAFBC5EBC50004EBC00909F59F50F2
:100B500005F006FED7F8500400EB452104EB8500B4
:100B6000243005F033FD06EB8500D0F8E8C0D0F85E
:100B7000D830D0F8A820D0F8B8108DE80E1090ED3D
:100B8000400AD0F8E810D0F8D810D0F8A810D0F863
:100B9000B800D6F8FC30D6F8F8203068C10809F55E
:100BA0009F5005F0E7FD6D1C022DB1DB206AD0F8E7
:100BB000A400082180B2A08361830021218305283D
:100BC0000FD2DFE800F0030507090C000A4804E033
:100BD0000A4802E00A4800E00A48E06201E00A48E8
:100BE000E0620A48006805B0BDE8F043FFF726BCA4
:100BF000686D0108B06D0108F9090008D30C000800
:100C0000FB090008AD0900087B0A000828280040FD
:100C1000F8B5054612480C460090C1EB0410C0EB35
:100C2000C000104A05EBC00606F130000323A2F114
:100C3000240105F04BFD41F2504006F55561405945
:100C400000EB442206F5D86004F026FBC4EBC40098
:100C500005EBC000BDE8F84000F59F5005F080BDF1
:100C6000686D0108B06D01082DE9F8438846044617
:100C7000002500F5805700BF04EB8506D7F8500427
:100C8000736A00EB45206A4641469847C5EB05105C
:100C9000C0EBC00004EBC0009DED000A303005F051
:100CA000B4FC86ED020A208B6D1C401C2083022DB3
:100CB000E2DB618B80B2884218BFBDE8F883002078
:100CC0002083E26A01B004F108012046BDE8F04348
:100CD000104710B5044691ED000A00F5D86005F004
:100CE00094FCB0EEC00A04F5556005F08EFC84ED6E
:100CF000000A04F59F5005F06FFD04F5805494F848
:100D0000080410F0010F1CBF012000F01EF810BDF8
:100D100010B5818B41F218428418052928BF10BDF7
:100D2000DFE801F012030909090000F59F50BDE852
:100D3000104005F01BBD00F59F5005F017FD204643
:100D4000BDE8104005F012BD10BD00BF70470000A7
:100D50002DE9F04FADF5197DFE4890AA84A90290C7
:100D600004F01EF900281CBF0DF5197DBDE8F08FB9
:100D7000F949DFF8E88301F5A0508C9008F10400F0
:100D800008F1C009869009F10400859041F29800AD
:100D9000F34DF44FF44E084401F580548990849843
:100DA0000178802908BFF14800F00E834ADC212930
:100DB00000F064811ADC112972D008DC042980F06B
:100DC0009E87DFE811F078068C009B00A8001429AC
:100DD00067D005DC122970D013296FD000F08FBFC7
:100DE00015296CD020296BD000F089BF412900F073
:100DF000768213DC302900F08D8107DC222900F097
:100E00005781232900F06C8100F079BF312900F06F
:100E10000B82402900F0538200F071BF422900F09C
:100E20006E82502908BFD14800F0B082512904BF1A
:100E3000706A40F0020000F00D83602900F0AF827C
:100E400000F05DBF9D2900F07E8519DCA1F18101D4
:100E5000132980F05487DFE811F0CC02E9022E0656
:100E600000032E062E062E062E062E0690042E06B3
:100E7000A5042E062E06E104E6040F052C054905FF
:100E8000F02900F0DD851CDCAB2900F0848509DC4D
:100E90009E2900F075859F2900F0768500F02FBF10
:100EA00046E0ADE0AC2900F08D85AD2904BF407867
:100EB000DA2800F0AB8500F022BF7FE08EE0BBE0D7
:100EC000C2E0F12900F0F885F22900F03186F3291B
:100ED00000F09D86F42900F0D88600F010BF00F1E4
:100EE000A1014FF4B07205F1A000FFF702FBA04A88
:100EF0009B499948FFF7FEFD00F001BF411C4FF4EC
:100F000000729B48FFF7F5FA994A95499248FFF716
:100F1000F1FD00F0F4BE411C4FF400729548FFF75C
:100F2000E8FA934A8E498C48FFF7E4FD00F0E7BEEB
:100F3000417801F00F01042904D8407800F00F0037
:100F4000C5F8A400D5F8A40028B9D4F8080440F4E2
:100F50000060C4F80804D5F8A40002280BD1D4F826
:100F6000080440F40060C4F80804D4F8400440F4D5
:100F70000060C4F84004D5F8A40004280BD1D4F8CC
:100F8000080440F40060C4F80804D4F8400440F4B5
:100F90000060C4F84004D5F8A400032840F0AF86F0
:100FA000D4F8080440F40060C4F80804D4F84004FD
:100FB00040F40060C4F8400400F0A1BE427862F33F
:100FC0000701827862F30F21C278007962F317413A
:100FD00060F31F61C5F8141100F091BE427880786B
:100FE00062F3070160F30F2188B2C5F82001D5F83C
:100FF00020114FF6FF70411A5F48016000F07FBE7C
:101000004278022A80F07B86837863F30701C378F5
:1010100063F30F210379407963F3174160F31F6194
:10102000002A08BFC4F8F41300F06986012A04BF3F
:101030008C98C16200F063BE504930F8012F0A83DA
:101040004088488300F05BBE50F8011FC4F8E413E9
:10105000C5F8D8104168C4F8E813C5F8E8108168ED
:10106000C4F8EC13C5F8B810C168C4F8F013C5F89B
:10107000A8100069C5F8C80000F041BE50F8011F73
:10108000C4F81C14C5F8DC104168C4F82014C5F875
:10109000EC108168C4F82414C5F8BC10C168C4F809
:1010A0002814C5F8AC100069C5F8CC0000F027BEC4
:1010B0002F4950F8012FC1F88C204268C1F88420D4
:1010C0008268C1F88020027B0A70027C4A70007D31
:1010D000887000212048FFF79BFD00F010BE00BF84
:1010E000234950F8012FC1F88C224268C1F88422AC
:1010F0008268C1F88022027B81F80022027C81F89C
:101100000122007D81F8020201211348FFF780FDD2
:1011100000F0F5BD1AA10522D1E90001CDE90B01CE
:101120000BA9029800F0FCFE029803F0F4FF16A051
:101130000322006800906946144803F0D5FF134865
:1011400004F071F8642006F099FB032269460F4809
:101150001EE0000044230020C40C0020C49E042094
:10116000C404002044210020182100200010014068
:10117000C4080020C40A00200C740040EC60002069
:101180005A5A30A5A50000003C303E00004900201E
:1011900003F0AAFFFD4804F046F8FD49B1F88C00C1
:1011A000012808BF012204D00022002808BF012026
:1011B00000D0002010430CD00120A1F88E000021A7
:1011C000F44814F0EBF90121F24814F0E7F900F0CB
:1011D00096BDAD208DF80C008E208DF80D00F069C5
:1011E000CDF80E00B068CDF81200F068CDF816000A
:1011F0003069CDF81A007069CDF81E00B069CDF8DD
:10120000220030208DF82600DA208DF827008DF896
:1012100028001D2203A9E04803F066FFDE4800BF56
:1012200004F001F800F06BBDDFF864B30520DFF8CF
:1012300068A3ABF88E004FF40072D84904A8FFF7FA
:101240009DF9BBF8101003AA584601F0F3FF489827
:101250000399401A4890D248022296A900689690B5
:10126000D04800689790504600F05AFE4FF4007244
:1012700004A9504600F024FE022297A9504600F02F
:101280004FFE504603F047FF0521C24814F086F98F
:10129000C5A10522D1E90001CDE9940194A90298E4
:1012A00000F03EFE029803F036FFC1A00322006862
:1012B00000906946B54803F017FFB448B0E7BD4851
:1012C00004F049FFBCA00322006800906946AF48C3
:1012D00003F00AFFAD4803F0A6FF00F010BDB548CB
:1012E00004F034FFB5A00322006800906946A748C7
:1012F00003F0FAFEA54803F096FF00F000BD417828
:1013000011F0800F417801F07F011FD0102980F08B
:10131000F6844078C5F81801D9F820004009002863
:1013200040F3ED84A64A4FEA401C936885995069C2
:101330006044984224BFB0FBF3FA0AFB13005061EB
:10134000C869A0EB0C00C86100F0D9BC402980F04E
:10135000D6844078C5F81801D8F82000800A002803
:1013600040F3CD84974A4FEA802C93688698516960
:101370006144994224BFB1FBF3FA0AFB1311516196
:10138000C169A1EB0C01C16100F0B9BC016811F0A9
:10139000800FFBD0D5F81C11416000F0B0BC407844
:1013A00010F0010F1CBF41F00101D5F8302110F001
:1013B000020F1CBF41F00401D5F834018248428875
:1013C0001143418000F09BBC016811F0800FFBD0FD
:1013D0007EA00122006800906946029800F0A0FDFE
:1013E000029803F098FE388840F00800388000F03A
:1013F00086BC7748016811F0800FFBD0754B0DF16A
:101400000C0A0FCB8AE80F00734800680168CDF81A
:101410000D10806ACDF811000D2203A9029800F08A
:101420007FFD029803F077FE00F069BC388810F069
:10143000040F04BF706A40F001000BD06748082217
:10144000D0E90010CDE9041004A9534800F068FD6C
:101450000298E7E7706200F052BCB0F80110ADF8F6
:1014600010104B49C0780090486DBDF810206FF304
:101470000F00496D1044DFF850A1401A0021CAF84E
:101480002000CAF82410DAF82000DAF8241010F549
:10149000803071F1FF300BDADAF82000DAF824201E
:1014A00010F5803142F10000CAF82010CAF824007B
:1014B000DAF82030DAF824000022D3F5803172EB1C
:1014C00000000BDADAF82000DAF82410B0F58030EA
:1014D00041F1FF31CAF82000CAF82410DAF82000E0
:1014E000DAF8241040F2E242801841F10001CAF813
:1014F0002000CAF82410DAF82000DAF82410103896
:1015000071F10000B4BF4FF0010C4FF0000CDAF89D
:101510002010DAF824000023591A73EB0000B4BF3E
:10152000012000205CEA000012D0DFF8B4B0DBF844
:101530000C00DAF82030DAF82420C01842F100015B
:1015400010220023FEF755FFDBF834100098885472
:10155000DAF82010DAF82400491C40F10000CAF83B
:101560002010CAF82400DAF82010DAF82400103924
:1015700070F10000B4BF01230023DAF82010DAF87C
:1015800024000022511A72EB00002BE000490020D9
:10159000C4A00420EC60002044230020C4040020E8
:1015A00074090008000900085A5A31A5A500000076
:1015B0003C313E00182100203C403E003C413E00B2
:1015C000849F0420C49E042060030020800000004B
:1015D0000010014034790108A43A03201C79010865
:1015E00044A00420B4BF01200020184312D0DFF82B
:1015F00090B5DBF80C00DAF82030DAF82420C018B7
:1016000042F1000110220023FEF7F3FEDBF8341054
:1016100000988854DAF82000DAF82420411C42F1BE
:101620000000CAF82010CAF82400DAF82000DAF81E
:101630002410103871F10000B4BF4FF0010C4FF0CE
:10164000000CDAF82000DAF824100023181A73EBE3
:101650000100B4BF012000205CEA000012D0DFF8D6
:1016600020B5DBF80C00DAF82030DAF82420C018B6
:1016700042F1000110220023FEF7BBFEDBF834101C
:1016800000988854DAF82010DAF82400491C40F158
:101690000000CAF82010CAF82400DAF82010DAF89E
:1016A0002400103970F10000B4BF01230023DAF8E0
:1016B0002010DAF8242000208446401A7CEB020037
:1016C000B4BF01200020184312D0DFF8B4B4DBF817
:1016D0000C00DAF82030DAF82420C01842F10001BA
:1016E00010220023FEF785FEDBF8341000988854A2
:1016F000DAF82000DAF82410401C41F10001CAF8A1
:101700002000CAF82410DAF82010DAF82400103982
:1017100070F10000B4BF4FF0010C4FF0000CDAF88C
:101720002000DAF824100023181A73EB0100B4BF6C
:10173000012000205CEA000012D0DFF844B4DBF89E
:101740000C00DAF82030DAF82420C01842F1000149
:1017500010220023FEF74DFEDBF834100098885469
:10176000DAF82010DAF82400491C40F10000CAF829
:101770002010CAF8240000F0C2BA411C00F1050A8A
:101780003888042800F0BB820022FE4809F0EEFAF7
:1017900000225146FB4804F043FCFB4804F0E8FCFF
:1017A00000F0ADBA411C00F1090B584604F0C8FD29
:1017B000DFF8D8A3594692A88AED020A04F0C0FDCA
:1017C0008AED030A9AED020AEF4804F0E1FC0022D8
:1017D00006A9EC4809F01CF900226946E94809F01D
:1017E000E6F83C208DF830008A208DF83100009812
:1017F000CDF832000698CDF836000798CDF83A00BB
:101800000898CDF83E000998CDF842000A98CDF826
:1018100046003E208DF84A0000F071BAD0F8010071
:10182000B06200F06CBADFF868A34FF40072D949D7
:1018300004A8FEF7A3FED848018A03AA01F0FAFC27
:1018400048980399401A4890D448022294A9006805
:101850009490D34800689590504600F061FB4FF497
:10186000007204A9504600F02BFB022295A95046B5
:1018700000F056FB5046D5E5CA48DFF814A3022213
:101880000068049091208DF81100C54804A90068F3
:101890000590504600F044FBC3494FF40072504697
:1018A00000F00EFB022205A9504600F039FB50461D
:1018B000B8E5BC48DFF8D8A2022200680090922068
:1018C0008DF80100B648694600680590504600F062
:1018D00027FBB6494FF40072504600F0F1FA02229D
:1018E00005A9504600F01CFB50469BE54078AD2111
:1018F0008DF8181093218DF819108DF81A00C0EB8F
:10190000C001AB48112200EBC10000F580500DF181
:10191000020190EDFD0A81ED060A90EDFE0A81EDCF
:10192000070A90EDFF0ADA2081ED080A8DF82700FA
:101930008DF8280006A9029800F0F2FA029803F048
:10194000EAFB00F0DCB9AD208DF828029D208DF86F
:10195000290298480822018BADF82A12408BADF875
:101960002C02DA208DF82E028DF82F028AA9029817
:1019700000F0D6FA029803F0CEFB00F0C0B900BF29
:1019800004F070FA00F0BBB9D0F801108A4801F0F9
:1019900034FA00F0B4B94078BA2840F0B0818749F1
:1019A000AB204860012005F069FFBFF34F8F8448EA
:1019B0000168844A01F4E06111430160BFF34F8F75
:1019C00000BFFDE74078CA2875D17C49AC2048604B
:1019D000012005F053FFDFF8F0A1DAF8000040F035
:1019E0008040CAF80000142005F048FF77A17A482B
:1019F0000EF00CF8642005F041FFDAF8000040F426
:101A00008040CAF80000FEF791FE78E103A80FF0CD
:101A1000C9F872A002220068009071A069460068AF
:101A20000890029800F07CFA122203A9029800F0B4
:101A300047FA022208A9029800F072FA0298F1E42B
:101A400087AA4FF40171029800F03CFB8798AD2102
:101A5000DFF85CB100F8011BF02100F8011B4FF02A
:101A6000000A8790849800EB4A00B0F9010000EE6C
:101A7000100A0BF13000B8EEC00A04F0C6FDBDEE4E
:101A8000C00A87980AF1010A10EE101A00F8011B2B
:101A9000090A00F8011B8790BAF5807FE2DBDA21A2
:101AA00000F8011B00F8011B8790029800F0D6FA9D
:101AB000029803F030FB22E18DAA4FF401710298E5
:101AC00000F000FB8D98AD21DFF8E4B000F8011BB9
:101AD000F12100F8011B4FF0000A8D90849800EB73
:101AE0004A00B0F9010000EE100A0BF13000B8EE28
:101AF000C00A04F08AFDBDEEC00A8D980AF1010A01
:101B000010EE101A00F8011B090A00F8011B8D9055
:101B1000BAF5807FE2DBDA2100F8011B00F8011B37
:101B20008D90029800F09AFA029803F0F4FAE6E039
:101B30008EAA4FF40171029800F0C4FA8E98AD217C
:101B4000DFF86CB000F8011BF22100F8011B4FF028
:101B5000000A8E90849800EB4A00B0F9010000EE74
:101B6000100A0BF55E70B8EEC00A04F04EFDBDEE33
:101B7000C00A8E9810EE101A00F8011B090A31E015
:101B800044A00420A43A0320442100206003002044
:101B900044230020C4040020C4A0042074090008C9
:101BA00000090008FC080008C4080020C40A00203E
:101BB000C40C0020EC60002058A10420001001405B
:101BC0000CED00E00400FA05180802403C504556B0
:101BD000454E3E0000000000D43D0320ADDA000079
:101BE000DADA000000F8011B0AF1010A8E90BAF55A
:101BF000807FAFDBDA2100F8011B00F8011B8E901B
:101C0000029800F02BFA029803F085FA77E088AA90
:101C10004FF40171029800F055FA8898AD21DFF871
:101C2000F8B000F8011BF32100F8011B4FF0000A87
:101C30008890849800EB4A00B0F9010000EE100A89
:101C40000BF55560B8EEC00AB0EEC00A04F0DDFC3A
:101C5000BDEEC00A88980AF1010A10EE101A00F8C9
:101C6000011B090A00F8011B8890BAF5807FE0DBB0
:101C7000DA2100F8011B00F8011B8890029800F09F
:101C8000EDF9029803F047FA39E08FAA4FF4017199
:101C9000029800F017FA8F98AD214FF0000A00F873
:101CA000011BF42100F8011B8F90849800EB4A007F
:101CB000B0F9010000EE100A8998B8EEC00AB0EE43
:101CC000C00A04F0A2FCBDEEC00A8F980AF1010A16
:101CD00010EE101A00F8011B090A00F8011B8F9082
:101CE000BAF5807FE1DBDA2100F8011B00F8011B67
:101CF0008F90029800F0B2F9029803F00CFA90AAC3
:101D000084A9029803F04CF900283FF448A80DF587
:101D1000197DBDE8F08F0000C40C0020D0F8843895
:101D2000002B04BF4FF0FF307047D0F8803800EB35
:101D30008303D3F804380B60D0F8801800EB8101DE
:101D4000D1F824181160D0F88018491C0429D0F863
:101D5000801834BF491CC91EC0F88018D0F88418F8
:101D6000491EC0F88418B0F8341812881144A0F83D
:101D70003418B0F83418B0F836281144A0F83418E4
:101D80000021A0F8361808467047D0F88428002AA9
:101D900004BF4FF0FF30704790F874380022A3B9A9
:101DA000D0F8803800EB8303D3F80438C0F86838E3
:101DB000D0F8803800EB8303D3F82438C0F87038AB
:101DC000C0F86C28012380F87438D0F86C38D0F84B
:101DD00068C89C445B1CC0F86C389CF800300B70E1
:101DE000D0F86C18D0F87038994231D380F8742844
:101DF000D0F8841861B3D0F8801800EB8101D1F8D5
:101E000004181160D0F8801800EB8101D1F8241873
:101E10001160D0F88018491C0429D0F880182CBF14
:101E2000C91E491CC0F88018D0F88418491EC0F893
:101E30008418B0F8341813881944A0F83418B0F88E
:101E40003418B0F836381944A0F83418A0F83628F9
:101E5000002070475FF00001D0F88428002A08BFF6
:101E60007047D0F8803800EB8302D2F804280A606B
:101E7000D0F8803800EB8302D2F824280A60D0F82A
:101E80008028521C042A0246D0F880282CBFD31E7A
:101E9000531CC0F88038D0F88428531EC0F884380A
:101EA000B0F834280B881A44A0F83428B0F8343835
:101EB000B0F836281A44A0F83428A0F83618CBE732
:101EC000B0F834389342DCBF4FF0FF307047D0F8A1
:101ED000783800EB8303C3F80418D0F8781800EBC7
:101EE0008101C1F82428B0F83418891AA0F83418F0
:101EF000D0F87818491C0429D0F8781834BF491C48
:101F0000C91EC0F87818D0F88418491CC0F8841885
:101F1000D0F88818491CC0F88818002070470000C5
:101F20002DE9F0470446D0F87C0886B0154688466F
:101F3000C0F5006080B2002682420BDBB4F8341892
:101F4000091AA4F83418B4F836180844A4F8360866
:101F5000C4F87C68B4F83418A942DEBF4FF0FF30F3
:101F600006B0BDE8F087D4F87C18A01C0144C4F882
:101F70006058C4F85818C4F85C68012184F86418E3
:101F8000D4F87C184819B0F5006FD4F87C182046B6
:101F900032BF4819A5F500600844C4F87C08D4F89D
:101FA0007818DFF8B4A004EBC1074FF000094A46E7
:101FB0006946504607F6380708F02AFD4A4605A943
:101FC000504608F0F4FC9DF801109DF80200C1EBAA
:101FD000011100EB81003860019842F20F71081A7C
:101FE00078602A464146D4F85808FEF782FA84F809
:101FF0006468D4F85818D4F86008B4F834288242D9
:1020000025DDD4F8782804EB8202C2F80418D4F84D
:10201000781804EB8101C1F82408B4F83418081AC0
:10202000A4F83408D4F87808401C0428D4F87808B8
:1020300034BF401CC01EC4F87808D4F88408401C83
:10204000C4F88408D4F88808401CC4F8880806B08E
:102050000020BDE8F0870000A43A0320002180F8AA
:102060006418D0F85828D0F86018B0F834388B428B
:1020700025DDD0F8783800EB8303C3F80428D0F8C6
:10208000782800EB8202C2F82418B0F83428511ADC
:10209000A0F83418D0F87818491C0429D0F878181A
:1020A00034BF491CC91EC0F87818D0F88418491CE0
:1020B000C0F88418D0F88818491CC0F88818002087
:1020C000704700002DE9F0410446D0F87C0886B046
:1020D0001646C0F5006080B2002281420BDBB4F8E6
:1020E00034381B1AA4F83438B4F836381844A4F835
:1020F0003608C4F87C28B4F834088842DEBF4FF0B4
:10210000FF3006B0BDE8F081D4F87C08A31C184469
:10211000C4F86018C4F85808C4F85C28012084F892
:102120006408D4F87C080844B0F5006FD4F87C0843
:1021300028BFA1F500610844C4F87C08D4F87808E9
:10214000DFF8488004EBC00500273A466946404660
:1021500005F6380508F05CFC3A4605A9404608F04B
:1021600026FC9DF801109DF80200C1EB011100EB67
:1021700081002860019842F20F71081A6860D4F853
:102180005808306006B00020BDE8F081A43A032072
:10219000D0F85C28D0F860389A420AD2D0F85C288F
:1021A000D0F858381344521CC0F85C28197000202D
:1021B0007047D0F85C18491CC0F85C184FF0FF302D
:1021C0007047002180F86418C0F85C18D0F88C18AB
:1021D000491CC0F88C1800207047D0F86018D0F85F
:1021E0005C08081A7047D0F88438002B04BF4FF001
:1021F000FF307047D0F8803800EB8303D3F8043801
:102200000B60D0F8801800EB8100D0F82408106033
:1022100000207047D0F8840870474FF40061A0F8A0
:1022200034187047032003F087BF70472DE9F00191
:10223000554989B091E8FC118DE8FC11096A009DAF
:102240000891009B00F1200C00F1210415F80C50BE
:102250001B5D05F07F05002243EA052302EB5313C3
:10226000012201A9921C51F8045B092A2E5D15F880
:102270000C5005F07F0546EA052503EB551351F890
:10228000045B2E5D15F80C5005F07F0546EA052528
:1022900003EB5513E6DB3D49A1FB03214A0800F59A
:1022A0001C31A2F500734FEAE37CA1F8442103EB53
:1022B0001C7391F846C1D1F84C510CEB2313DFF895
:1022C000D0C09542DCF81C403CBF621CCCF81C20FE
:1022D00015D32F4DD1F85061AD69B2423CBF6A1C95
:1022E000CCF818200BD3002CD4BF0022621ECCF8EF
:1022F0001C20002DD4BF00226A1ECCF8182000221A
:10230000FF2BC4BFFF2381F8463105DC002BB4BF8F
:1023100081F8462181F84631DCF81C30202B08DD9D
:1023200091F84731002B18BF5B1E81F84731CCF87C
:102330001C20DCF81830202B08DD91F84731032BE6
:1023400018BF5B1C81F84731CCF8182091F849314F
:1023500091F846C19B071B0E43EA0C2391F847C135
:1023600091F84811027E0CF0030C43EA0C1301F0C3
:10237000030102F0030243EA81011143018309B022
:10238000BDE8F00170470000F8780108398EE338A5
:102390006C01002030B40168CA6C92F85C30916D19
:1023A000202202FA03F38B600368DB6C93F85CC0B5
:1023B000082303FA0CFCC1F808C0D0F800C0DCF810
:1023C0004CC09CF85C404FF0100C0CFA04F48C608C
:1023D0000468E46C94F85C50012404FA05F58D60FF
:1023E00001688D6CA96D95F85C50AA408A600268FE
:1023F000926C92F85C2003FA02F28A600268926C96
:1024000092F85C200CFA02F28A600068806C90F806
:102410005C0004FA00F0886030BC704770B586B08C
:10242000054605F0E5FB21494959401A2049486213
:1024300028794FF0000610F0020F4FF002040AD086
:1024400020F002012971E88ACDE90006029469466C
:10245000286905F0C7FA286801688E6001688868F5
:1024600010F0010F06D0087B8DF80000886810F08E
:10247000010FF8D1A88B4FF4F67104EB001000FBAC
:1024800001F4002C04BF06B070BD00BFB4F5803F5E
:102490002CBF4FF6FF70204686B2314628460EF01C
:1024A00007FAA41BF2D106B070BD00004071020013
:1024B0006C0100202DE9F04186B00446808A00902E
:1024C0004FF0030801200027CDF80C80CDE901076B
:1024D0000E466946E06805F085FAA18A0022E068A8
:1024E00005F081FB012005F0C9F90025002E1AD95D
:1024F000A18A0122E06805F076FB00BF00BF02223E
:1025000000BF521C052AFBDBA18A0022E06805F00F
:102510006AFB00BF00BF022200BF521C052AFBDB82
:102520006D1CB542E4D3A08A00900220CDE90107DA
:102530000620CDE903806946E06805F053FA06B04D
:10254000BDE8F08110B582B00446DDE9040CE2601C
:102550002160A3822061A4F816C0084608F03AFD65
:1025600020680068016841F04001016000F024F833
:102570000D490020A083085104F51C300B4A04F1DA
:10258000200100F5AC7013F04BF8204600F016F86F
:1025900007A0D0E90010CDE900102162BDF80400C9
:1025A000A08402B010BD000028710200007102007A
:1025B000434533324300000000BF70472DE9F04F20
:1025C0008FB00446C08A4FF0020ACDE9030A4FF0EB
:1025D00000090320CDE905900620079003A9206992
:1025E00005F000FACDF80090CDF80490A4F81C9006
:1025F00040F6DF2525836620608301212046FFF712
:1026000059FF208B902747EAD0318DF80010C00980
:102610008DF80100207E4FF0920840008DF80200F6
:10262000608BEB4648EAD0308DF80300608BC00920
:102630008DF80400A07E40008DF8050000260121E1
:102640002046FFF737FF4FF47A730322694620468E
:1026500000F062FB4FF47A7303220BF10301204672
:1026600000F05AFB761CB6F5807FE8DB012005F010
:1026700005F9CDF81490CDF81890A4F81C90258396
:102680006420608304F1200601212046FFF712FF39
:10269000208B4FF47A7347EAD0318DF81410C009BB
:1026A0008DF81500207E032240008DF81600608B07
:1026B00005A948EAD0308DF81700608BC0098DF865
:1026C0001800A07E40008DF81900204600F024FB81
:1026D0004FF47A7303220DF11701204600F01CFB22
:1026E000012005F0CBF80A212046FFF7E3FE0C217C
:1026F0002046FFF7DFFE4FF4F6725521204600F02A
:1027000085FA4FF476725521204600F07FFA05F0E5
:102710006FFA04F51C37D7F84011401A5F49486238
:10272000207910F0020F0BD020F002012171E08A15
:10273000CDF82CA0CDE9090909A9206905F052F9C5
:1027400020680168C1F808900068816811F0010FE5
:1027500006D0017B8DF80010816811F0010FF8D1CF
:10276000A08B4FF4F6710AEB001000FB01F575B178
:10277000B5F5803F2CBF4FF6FF7028461FFA80F852
:10278000414620460EF094F8B5EB0805F0D14FF025
:1027900000082079A34635464FF4F67A10F0020F70
:1027A0000ED020F002018BF80410BBF81600CDE922
:1027B0000A0902200C900AA9DBF8100005F012F9B2
:1027C000DBF800000168C1F808900068816811F02A
:1027D000010F06D0017B8DF82810816811F0010FE0
:1027E000F8D1DBF80000002201688B6813F0020FBB
:1027F00019D00A730168896811F0010F08BF01211F
:1028000005D00AE0491C6429C4BF00211A7303687B
:10281000D3F808C01CF0010FF4D00068007B8DF8DD
:1028200000009DF8000005F8010BBAF1010AD8D1AB
:1028300008F10108B8F5A07FABDB4FF47A730C22E6
:102840001749204600F032F887F84691012087F8B2
:102850004701022087F8480187F849014FF4B37017
:10286000C7F8500140F29920C7F84C019820208306
:10287000207F4FF4097100F00F0041EAC02060830F
:102880002068C26C016812680C3191600168C06CEC
:102890000C31006881600FB0BDE8F08F6C01002042
:1028A000E06000200020704700207047F0B5074628
:1028B000007985B015460E4610F0020F4FF0000467
:1028C0000BD020F002013971F88ACDE90004022012
:1028D00002906946386905F085F8386801688C60AF
:1028E0000068816811F0010F06D0017B8DF800109F
:1028F000816811F0010FF8D1002D04BF05B0F0BDC3
:1029000000213B681868826812F0020F1DD0017325
:102910001868806810F0010F08BF4FF0010C09D053
:102920000DE000BF0CF1010CBCF1640FC4BF4FF00F
:10293000000C21731C68A06810F0010FF2D0186819
:10294000007B8DF800009DF8000006F8010B6D1E5D
:10295000D6D105B0F0BD00002DE9F04186B00446A7
:1029600005F046F929490959401A29498862207910
:102970004FF0020710F0020F4FF000050AD020F0D0
:1029800002012171E08ACDE90005029769462069BC
:1029900005F028F8206801688D600068816811F0F2
:1029A000010F06D0017B8DF80010816811F0010F36
:1029B000F8D12079174E04F1200810F0020F0AD048
:1029C00020F002012171E08ACDE9000502976946F5
:1029D000206905F007F8206801688D600168886843
:1029E00010F0010F06D0087B8DF80000886810F009
:1029F000010FF8D104F51C30C0F83481C0F824610F
:102A000020460EF003F806B0BDE8F08140710200E8
:102A10006C0100200C67020000207047094910B5C6
:102A2000095861B901680968496811F0010F03D0BC
:102A3000FFF7B0FC002010BD032112F0AFFD4FF0F6
:102A4000FF3010BD2471020030B583B0044605F09C
:102A5000CFF8054605F0D2F84FF47A7110FB01F07B
:102A600004F51C31D1F84021C1F84051AA1AB0FB3D
:102A7000F2F0C1F85401002000900190608B902189
:102A800020F002006083208B41EAD0318DF80010E5
:102A9000C0098DF80100207E922140008DF80200CF
:102AA000608B41EAD0308DF80300608BC0098DF84F
:102AB0000400A07E40008DF80500FFF7B6FB4FF440
:102AC0007A7306226946204600F026F903B00020FA
:102AD00030BD00002DE9F04389B0044605F088F8C8
:102AE0004849494D0959401A286220794FF000069B
:102AF00010F0020F0BD020F002012171E08ACDE925
:102B000004060220069004A9206904F06BFF2068E7
:102B100001688E600068816811F0010F06D0017BAA
:102B20008DF80010816811F0010FF8D140F2D7370D
:102B30004FF0000C01968DF80C604FF001080696DE
:102B4000216800200A68936813F0020F19D01073EF
:102B50000A68926812F0010F08BF012205D00AE04E
:102B6000521C642AC4BF002218730B68D3F8089063
:102B700019F0010FF4D00868007B8DF800009DF873
:102B800000000699491C0691BCF1000F06D0604573
:102B900018BF4FF0000C10D0019611E0552808BF67
:102BA0004FF0550C06D0AA2814BF8DF80C004FF03A
:102BB000AA0CF1D1CDF8048002E00198401C0190EC
:102BC0000198B842BCD3AA212A69FF2001920022B1
:102BD0009DF80C3003408B4207D0019B49085B1CD9
:102BE0004008521C0193082AF2DD20460199FFF7A4
:102BF00061FC0698E8620198286309B00020BDE8EE
:102C0000F0830000407102006C010020F0B5044622
:102C1000007989B0154610F0020F4FF000070BD075
:102C200020F002012171E08ACDE90407022006901C
:102C300004A9206904F0D6FE206801688F6000684E
:102C4000816811F0010F06D0017B8DF800108168BA
:102C500011F0010FF8D16E1E4FF0000C65468DF893
:102C60000C7006973BD0216800270A68906810F026
:102C7000020018D017730868806810F0010F08BFB1
:102C8000012205D009E0521C642AC4BF00221F7330
:102C90000B68986810F0010FF5D00868007B8DF87C
:102CA00000009DF800000699491C06914DB1A8420C
:102CB0000CBF0CF1010C00250FD000BF4FF0000C31
:102CC0000BE0552808BF552505D0AA2814BF8DF85C
:102CD0000C00AA25F2D14FF0010CB445C3D30D4A24
:102CE000AA21FF20526901925FF000029DF80C308A
:102CF00003408B4207D0019B49085B1C4008521CD3
:102D00000193082AF2DD20460199FFF7D3FB09B0B1
:102D10000020F0BD6C0100202DE9F0410446076859
:102D2000007986B015460E4610F0020F4FF00008ED
:102D30000FD140F002012171E08A00900220CDE91C
:102D4000010803200390062004906946206904F0DE
:102D500049FE20680168C1F808800068816811F0A8
:102D6000010F06D0017B8DF80010816811F0010F72
:102D7000F8D135B3206831780268936813F0020FF8
:102D80001BD011730268926812F0010F08BF012373
:102D900006D00CE05B1C642BC4BF00238CF80C1025
:102DA000D0F800C0DCF8082012F0010FF2D0006863
:102DB000007B8DF800009DF800006D1E06F10106F5
:102DC000D8D13868816811F0020F1CBF06B0BDE889
:102DD000F08100BF816811F0020FFAD006B0BDE8A3
:102DE000F08110B5B0F90610022902D00222C2808B
:102DF00089B212F0D3FB002010BD90F8042212F02B
:102E0000010F1CBF4FF0FF307047C0F800120121C6
:102E1000A0F804120020704770B586B0394808F059
:102E20003EFC394808F03BFC384808F038FC38488C
:102E300008F035FC374808F032FC324808F08AFCCC
:102E4000314808F087FC314808F084FC304808F02D
:102E500081FC304808F07EFC2F4802F007F82F482C
:102E600004F0D4FE2D4805F03BFF2D4808F09AF8F9
:102E70002B4808F011F92B4808F094F8294808F07D
:102E80000BF9294D00220821284604F0ACFE274802
:102E900008F088F8254808F0FFF8002204212846A9
:102EA00004F0A1FE082003260024CDE900060294C8
:102EB000039469460494284604F094FD0420CDE967
:102EC00000060294039469460494284604F08AFD9F
:102ED000174804F059F9164804F030FAA86940F090
:102EE0008070A8611348016841F080510160124868
:102EF000A0F88C401148016841F40051016006B00F
:102F000070BD0000243C0320B43C0320FC3C0320A3
:102F1000443D03208C3D0320885C0020F0390320D1
:102F20001C3B0320CC3B032000000240C43A03209A
:102F3000A839032018040240C4A004201808024045
:102F400010B584B0002142F210721A4CCDE9002174
:102F50000C20CDE9020419490823174AA1F1B00059
:102F60000CF0E2F8217816488160082180F84011C1
:102F70000C300BF0EDFD4020134A4302CDE9003246
:102F80001049CDE9021002F5E472A2F52C710F4B45
:102F9000A1F1B0000BF002FD094803F02FFB0C4A31
:102FA00007490C48FDF7A6FD04B00A48BDE81040EB
:102FB000FDF7AEBEB021002000000240CC3B032054
:102FC000C4040020D0040020B43C03207CBE0320B5
:102FD000C4080020C40C0020F0B5354C334EA3B01B
:102FE000606A10F0020F04BF23B0F0BD3148B0F8A2
:102FF0008C00012808BF002101D0012100B101206F
:10300000084304BF23B0F0BD02F01CFDFFF798FF9A
:10301000294A02F14801A1F1D8000CF01BFC294912
:10302000264D0823264AA1F1B00000950BF0A0FD23
:10303000AD208DF8040051208DF80500DA208DF8C0
:1030400086008DF8870000210DF1040705EB810053
:1030500007EB410290ED240A891C4029BCEEC00A0E
:1030600010EE10CAA2F802C090ED250ABCEEC00A0C
:1030700010EE100A9080E9DB842239463046FEF7D4
:103080004FFF304602F047F80B4A02F14801A1F128
:10309000D8000CF00FFC0C4808F0EBFCFFF7BCFE6E
:1030A000606A20F00200606223B0F0BD442300207B
:1030B00018210020C4A00420443D0320B02100209A
:1030C00000000240CC3B0320FC3C03202DE9F047EC
:1030D00004461646DDE90C20DDE90985B4F85AA05E
:1030E000DDF82CC0DDF820900E9FBAF1000F1CBF58
:1030F0004FF0FF30BDE8F087C4F88890C4F8901016
:10310000C4E92063112161604FF40051A16089007E
:10311000A162C4F868C0C4E91885C4E91B20002571
:10312000E562E5612562E5636565204600F0C8F863
:1031300000F0A0F8306896F84011B0FBF1F0A4F868
:1031400044000220A4F88E0084F87C0084F87D50AE
:10315000C4F89452A4F8985227B10520A4F8580056
:10316000A4F88C500020BDE8F087000010B504469C
:10317000807C002804BF0220A4F88C0011D00A48EB
:10318000006870B9B4F85C00411CA4F85C100A280F
:1031900007D90321204612F07FFA0221204612F0BF
:1031A0007BFA002010BD00005C64024070B504464C
:1031B000006EC169E169626A891AA26A914206D900
:1031C0000121204600F032FCE06960622FE0E16EF0
:1031D000CA69B2F5806F0ED904222046A4F858209F
:1031E0000322A4F85E204A6B09690A44E16C0123BA
:1031F00000F02EFB1BE0C069B0F5806F03D92046BC
:1032000000F090FB13E094F8980210F0010F0ED03C
:10321000E07C002510B10AF0DBFAE57404F19401BA
:10322000D4F8940209F0E8FA0220A4F898020020E9
:1032300070BD704710B4038A8B423EBF4FF0FF3021
:1032400010BC70470A4C491E00238C46C4FB013C4D
:103250004FEA6C13A3EBEC73A3EB83131944D0F880
:103260008400042303EB81014058106010BC7047B8
:1032700083200882094840F22D11A0F8481108491E
:1032800091F88323A0F84A21D1F8D423C0F864210F
:10329000B1F8D813A0F86811FFF752BEC40400209B
:1032A0004433002010B5044600F07CF82046BDE809
:1032B000104000F005B900EB820001660020704765
:1032C00070B50446D0F88010112009F095FA12204C
:1032D000D4F8881009F090FAD4F8880000F500714D
:1032E000132009F089FA0025A4F8105005F1800098
:1032F000D4F8841009F080FA218AD4F88400026896
:103300001144218200683F28F0D005F1800020653B
:10331000D4F88010D4F8900009F03CF8D4F880007C
:10332000D0F8101141B1D0F81011D0F81001490DAA
:10333000494200EB4140E060002070BD10B5B0F89C
:103340005A1000291CBF0021A0F85A100521A0F82E
:10335000581000F061F910BD00B583B04FF48070D3
:103360000B4B4100CDE900130A4A0290A2F154012F
:10337000094801F05BF91223084A0421064801F0CC
:103380007FFC03B006485DF804EBFDF751BA00007E
:1033900000040240443A0320885C00209C9E0420E4
:1033A000005D002010B502F04DFB0C4808F021FB39
:1033B0000B48C069C1698068800800EB4000814209
:1033C00028BF10BD07480089012818BF10BD012182
:1033D000BDE81040034812F0E1B80000FC3C0320B7
:1033E00060030020EC60002010B5FFF7DBFF002039
:1033F00010BD000030B52C4889B0016841F0005183
:1034000001602A4A02F14801A1F1D8000CF022FA29
:10341000274C002204F10801264807F0F9FA00229F
:1034200004F11C01234807F0C2FA2348E169C0F8FF
:103430004C11A168E2682369D4F814C0A569C0F8EA
:103440005011C0F85421C0F85831C0F85CC1C0F820
:103450006051AD208DF800008E208DF80100E069EC
:10346000CDF80200A068CDF80600E068CDF80A00AB
:103470002069CDF80E006069CDF81200A069CDF882
:10348000160030208DF81A00DA208DF81B008DF818
:103490001C001D226946094801F026FE074801F07C
:1034A000C2FE09B030BD000018080240443D0320B0
:1034B00018210020A43A0320C40400204423002043
:1034C0002DE9F0410446B0F85A00ADF5007D012821
:1034D00002BF4FF0FF300DF5007DBDE8F081FFF732
:1034E0003BFF0027D4F8845084F87D70208ADFF8F1
:1034F00020813946401EC8FB00104111A1EBE07647
:10350000208A3946401E0246C8FB00125111A1EB29
:10351000E271A1EB81110144208A40B105EB8100E9
:103520004268A264D0F80001E06421B110E0A06814
:10353000A064E068F8E72F60A06C6860E06CC5F8F4
:103540000001206D294630440AF0A4FC0028F8D17F
:103550006765208A401C2082208A3946401EC8FBAD
:1035600000104111A1EBE071208A3A46401E03464B
:10357000C8FB00235A11A2EBE372A2EB82121044A3
:10358000421C2A603F2808BF4D1C06D1206D6946A9
:1035900028440AF07FFC0028F8D1D4F880000022EB
:1035A00000F5A8711B4807F033FAD4F88000002218
:1035B00000F5A671174807F0FAF900BFD4F880109B
:1035C000A06C0AF067FC0028F8D100BFD4F888107E
:1035D000A06C401C0AF05EFC0028F7D1D4F88800EB
:1035E00000F50071A06C801C0AF054FC0028F5D195
:1035F000A06C6930A0640120A4F85A00A4F85870A7
:10360000FFF7F8FE0DF5007D0020BDE8F081000019
:1036100083200882A43A0320074A10B502F148012A
:10362000A1F1D8000CF046F9044808F022FABDE8F0
:103630001040FFF7F1BB0000443D0320FC3C032099
:103640002DE9F05F0446B0F88C00032808BF364D22
:1036500018D1A07C002863D0286878B9B4F85C0041
:103660002246411CA4F85C100A2807D90321104601
:1036700012F012F80221204612F00EF8B4F88C0075
:103680000328E6D0E07C002510B10AF0A1F8E5742B
:10369000DFF8988003274FF0010B4FF0FF3A00BF8F
:1036A000A4F85870E07C10B10AF092F8E574208A12
:1036B0002946401EC8FB00104111A1EBE070218A91
:1036C0002B46491E0A46C8FB01325311A3EBE27296
:1036D000A2EB82121144A36CD4F884206FF30C0384
:1036E00002EB81014B60E26CC1F80021A4F85EA0FE
:1036F000A4F85870216DD4F884900E18E07C10B1B5
:103700000AF066F8E574666184F812B049463046FE
:103710000AF0C0FB0028C3D1A4F88E70BDE8F09F6A
:103720000221A4F88C10ADE75C640240832008827B
:10373000002181740846704770B5002504468574E1
:103740000AF094FA0028E07C0AD010B10AF040F8A0
:10375000E574E06B401CE063A4F85850002070BD95
:10376000012802D16069401C6061B4F95E00401C10
:10377000072825D2DFE800F0240427313D586000F7
:1037800094F87C00012809D9012084F87D00E069C3
:10379000401CE061A06C401CA06411E0206E8268B7
:1037A000016901F500718A424DD90161C169A1F534
:1037B0000071C161E069401CE061A06C401CA06424
:1037C000A4F85850CAE784F87D50206E82680169D9
:1037D00001F500719142E8D335E0B4F95E0004EBE5
:1037E0008000006E8268016901F500719142DCD3AE
:1037F00029E0B4F95E0004EB8000006E8268016984
:1038000001F50071914224BFB1FBF2F303FB1211E9
:103810000161C169A1F50071C161206A401C20628B
:10382000E06C401CE064CBE7206F8268016901F521
:1038300000719142B9D306E0606F8268016901F5B9
:1038400000719142B1D3B1FBF2F303FB1211ACE76B
:103850002DE9F04704460127C07C91460D464FF004
:103860000308002643B378B16069A84209D1A06C6F
:10387000C004C00C11D1A06C216C401AB0F5800FAF
:103880000BD309F0A5FFE6744FF4800008F0C8FCE4
:10389000256428460AF064F8D8B96561E774A7740E
:1038A000B4F88C00022808BFA4F88C804FF4007193
:1038B00048460AF0BDFF2BE010B109F089FFE6741D
:1038C0006561A774A4F88C80494628460AF0E4FD97
:1038D00018B14FF0FF30BDE8F0871048816811F053
:1038E000020F04D100BF816811F0020FFAD0016805
:1038F00021F040010160416841F002014160084946
:103900000A6842F001020A60016841F0400101606A
:10391000A4F85C600020BDE8F087000000300140A2
:103920005864024010B5C16A682925D0C16A3E4A70
:10393000A2FB01C39B086FF00C0C03FB0C110C29BC
:103940002ED0C16AA2FB01329208634602FB03112A
:1039500004293ED30422016FA0F85E20CA69B2F5A3
:10396000007F3BD3C26A521CC262826CC368A3F55B
:1039700000439A4225D351E0816ECA69B2F5007FB7
:103980002CD30222A0F85820A0F85E20C26A683A20
:10399000C262826CC368A3F500439A4211D33DE032
:1039A0000522416FA0F85E20CA69B2F5007F15D3E9
:1039B000C26A521CC262826CC368A3F500439A4279
:1039C0002CD24A6B09690A44816C0123FFF740FF3E
:1039D00022E0016ECA69B2F5007F02D24FF0FF30DB
:1039E00010BD0122A0F8582090F87D20A0F85E209C
:1039F000C36A5B1CC362836CD0F80CC0ACF5004C8E
:103A000063450BD2002ADCD0426E0969526B0A442E
:103A1000816C0123FFF71CFF002010BD0120FFF780
:103A200008FC012010BD00004FECC44E2DE9F04110
:103A300003260F460446A0F85860C07C002510B14C
:103A400009F0C6FEE574208A264A2946401EC2FBBC
:103A500000104111A1EBE070218AAC464B1E1946C3
:103A6000C2FB03C14A11A2EBE171A1EB8111194420
:103A7000A36CD4F884206FF30C0302EB81014B603C
:103A8000E26CC1F800214FF0FF31A4F85E10A4F8F9
:103A900058606FB1D4F88420216D00230144204682
:103AA000FFF7D6FEB0F1FF3F17D00020BDE8F08150
:103AB000216DD4F884800F18E07C10B109F088FEE5
:103AC000E57467610120A074414638460AF0E2F9C6
:103AD000002808BFA4F88E60E7D04FF0FF30BDE8A3
:103AE000F08100008320088210B5B0F98E10022901
:103AF00003D00222A0F88E2089B211F0CDFD002063
:103B000010BDF8B541F6AC4100F580544618D4F824
:103B100020014FF0FF35C16811F0200F1CBF016874
:103B200011F0200F5AD0016821F020010160D4F873
:103B300020014068C7B2D4F8280110F4007F44D0B7
:103B400096F8640828B96A464FF400713046FEF7CB
:103B5000B9FA3046FEF741FB00280BDA3046FEF793
:103B600030FBD4F8280120F40070C4F828016FF06D
:103B7000010533E03E2F07D039463046FEF708FBFB
:103B8000B0F1FF3F17D029E0D6F85C08C6F860080E
:103B90003046FEF763FA3046FEF713FBD4F82801EF
:103BA00020F40071C4F82811B4F8980340F4806040
:103BB000A4F8980311E03046FEF703FBD4F828017F
:103BC00020F40070C4F8280108E03C2F06D1D4F896
:103BD000280140F40070C4F8280100252846F8BDEB
:103BE00008B54FF0FF3100F580520091D2F8201156
:103BF000CB6813F0200F1CBF0B6813F0200F09D007
:103C00000B6823F020030B60D2F820114968C9B279
:103C100001F0CEF9009808BD2DE9F84F834600F574
:103C2000096941F238100BEB0004E069002808BF75
:103C3000BDE8F88FA068626B2169555C21694A1C58
:103C400022612169814202D32169091A2161E06957
:103C5000411EE1610BF5805ADFF8048100275646CA
:103C6000DAF8280110F4007F58D003F0C1FFD8E93A
:103C70000412411A77EB020002D5491E40F1000000
:103C800041F288320023511A73EB00000EDA4846E5
:103C9000FEF797FA3C2D09D103F0AAFFC8E9040703
:103CA000D6F8280140F40070C6F8280199F8640895
:103CB00080B9284601F0E9F8002808DD284601F01F
:103CC000E4F801466A464846FEF7FCF902E0484639
:103CD000FEF777FA29464846FEF75AFAB0F1FF3F59
:103CE00028D13E2D07D04846FEF76BFAD6F82801BA
:103CF00020F400701CE0584601F056F9D6F828016F
:103D000020F40070C6F82801B6F8980340F01000BF
:103D1000A6F89803584600F0C7F80BE03C2D09D1EF
:103D200003F066FFC8E90407D6F8280140F40070E4
:103D3000C6F82801E069002808BFBDE8F88FA06830
:103D4000626B2169555C21694A1C226121698142AB
:103D500002D32169091A2161E069411EE1617FE70F
:103D60005001002038B5014641F21C4201F5805453
:103D70008D18D4F820114FF0FF30CA6812F0800F70
:103D80001ABF096811F0800F38BD2846FEF742FAC5
:103D9000002808DD69462846FDF7F7FF002808BF20
:103DA000D4F8200106D0D4F82001C16821F08001A8
:103DB000C16006E0016811F0800FFBD09DF8001093
:103DC0004160002038BD01F0A6B90000F0B585B013
:103DD000054601F0F5F905F58054D4F82011C868BE
:103DE00010F0800FFBD12B4E306840F080403060E7
:103DF000642003F043FDD4F820014068B4F8980330
:103E000040F00800A4F8980341F6AC402844074667
:103E1000FEF720F820A00FC88DE80F00D4F8DA03D1
:103E20000290B4F8DE03ADF80C00D4F8280120F4B9
:103E30000070C4F828016846FCF730FB024641F2E6
:103E40001C4069462844FEF76BF8D4F82001C1688D
:103E500042F288021143C16028460BF0EFFD0022B8
:103E600011463846FDF75AFF306840F48040306014
:103E7000B4F8980320F00800A4F89803B4F8980365
:103E800040F40040A4F89803642003F0F7FC05B068
:103E90000020F0BD180802403C424F4E444D4143C3
:103EA0003030303030303E00022002F045B90000A2
:103EB0002DE9F05F0446002601F082F904F58055F3
:103EC000D5F82001C16811F0800FFBD1204601F028
:103ED00077F9324F386840F080403860B5F8980381
:103EE00040F00800A5F89803642003F0C7FCD5F85B
:103EF000280120F40070C5F828010FF2A4084046FC
:103F0000FCF7CCFA024641F21C402044414681466F
:103F1000FEF706F8D5F82001C16842F2880B41EAA5
:103F20000B01C16020460BF089FD41F6AC40002238
:103F3000204411468046FDF7F1FE0FF2700A50460C
:103F4000FCF7ACFA024651464846FDF7E9FFD5F8C2
:103F50002001C16841EA0B01C16020460BF06EFDF3
:103F6000002211464046FDF7D9FE386840F48040F3
:103F70003860B5F8980320F00800A5F8980364208D
:103F800003F07CFC204601F0C6F8B5F8980320F455
:103F90000040A5F898033046BDE8F09F180802409D
:103FA0003C444953424F4E443E0000003C53544170
:103FB00052545343414E3E00000000002DE9FF4F94
:103FC00081B000F580540025DDF838909B4682468C
:103FD000A4F89853B4F8980320F08000A4F898034C
:103FE000D4F82401344F4FF496460760C0E90165C8
:103FF0004FF00C08C560C0E904588561C56107F041
:10400000C4FF002818BF02F0BDFE5B46DDE90212C6
:104010005046CDF8009000F015F970B3D4F82401A3
:104020004FF480610760C0E90165C0E90351C0E950
:104030000585C56107F0A9FF002818BF02F0A2FEA0
:104040005B46DDE902125046CDF8009000F0FAF828
:1040500098B1D4F824010760C0E90165C560C0E9E2
:1040600004588561C56107F090FF002818BF02F071
:1040700089FE012005B0BDE8F08FFFE7D4F82401E8
:104080000760C0E90165C560C0E904588561C56184
:1040900007F07BFF002818BF02F074FE5046FFF7C0
:1040A00007FFB4F8980340F00200A4F8980305B0A5
:1040B0000020BDE8F08F00000010014070B50446FC
:1040C000C06B00254FF480668560E06BC560E06BD7
:1040D0000661E06B4561E06B8561E06BC561E06B9B
:1040E0000562E06B03F0F8F9A0B9E06B8463A16BA3
:1040F00040208860A06BC560A06B0661A06B456125
:10410000A06B8561A06BC561A06B0562A06B03F01D
:10411000E3F910B14FF0FF3070BDA06B0022032116
:104120008463252004F0ECFE252004F0DAFE2068EC
:10413000C16841F40051C1602068C16841F02001AC
:10414000C1602068C16821F08001C16094F842001C
:1041500020F0220084F84200002070BD2DE9F043D9
:1041600083B005464FF0FF3601F02AF805F580547C
:10417000D4F82011C86810F0800FFBD1DFF8B480AC
:10418000D8F8000040F08040C8F80000642003F038
:1041900075FBD4F8280120F40070C4F82801B4F8A5
:1041A000980340F00800A4F8980341F6AC40284476
:1041B0008146FDF74FFE20A73846FCF76FF902460F
:1041C00041F21C4039462844FDF7AAFED4F82001EC
:1041D000C16842F288021143C16028460BF02EFCF0
:1041E00001AA69464846FDF799FD0198072811D1B3
:1041F00000980622411C41F2DA302844FCF779F994
:104200000198421E0098411C41F292302844FCF76C
:1042100070F90026D8F8000040F48040C8F800008B
:10422000B4F8980320F00800A4F8980303B03046CF
:10423000BDE8F083180802403C504545524D4143CB
:104240003E0000002DE9F04F00F580550446D5F8FA
:1042500024018C46A1B0816B2A9F1E4609684968DB
:104260000091C06B0068436842F23C5061462044B4
:1042700011F0E6F9D5F82411886B006840680090C9
:10428000C86B0068436842F27C503A46314620448D
:1042900011F0D6F9204600F093FFCF4F386840F078
:1042A00080403860B5F8980340F00800A5F89803FE
:1042B000642003F0E3FA386840F0004038601420CE
:1042C00003F0DCFAD5F82401FFF7F8FEC3A6304668
:1042D000FCF7E4F8024641F21C4020443146804697
:1042E000FDF71EFED5F82001C16842F28806314371
:1042F000C1604FF4FA7003F0C1FA0FF2EC2948469E
:10430000FCF7CCF8024649464046FDF709FED5F8D1
:104310002001C1683143C16020460BF08FFB0128AA
:1043200000F0458141F6AC40204410AA1BA981460B
:10433000FDF7F4FC41F2D43020440646109A1B9954
:10434000FCF7D7F8A7A13046FCF7C7F895F8D403D7
:1043500085F8E60385F8E703601C00F580504FF010
:10436000000A90F8D413A01C00F58050564680F83F
:10437000E61380F8E713211D01F5805190F8D4036E
:1043800081F8E60381F8E703E01C00F580500DF1A9
:10439000580B90F8D423A01D00F5805080F8E62338
:1043A00080F8E72304F1080000F5805091F8D41359
:1043B00080F8E61380F8E713601D00F5805004F1E3
:1043C0000A0101F5805190F8D40381F8E60381F8E1
:1043D000E703CDF858A0CDF85CA0CDF860A0CDF8EB
:1043E00064A000BFA01900F580500BEB460190F8C7
:1043F000D4031EAAFCF789F9761C062EF2DB7CA6F4
:10440000CDF844A0CDF848A0CDF84CA0CDF850A0F0
:104410003046CDF854A0FCF741F8024631464046FC
:10442000FDF77EFDD5F82001C16842F288063143D0
:10443000C16020460BF002FB012800F0B8801BAAE7
:104440001FA94846FDF76AFC1B98021F1F98011D13
:1044500011A8FCF74EF81B980122001F002301044D
:10446000090C13D011A80844B0F1010090F800C065
:10447000ACF1300CBCF1090F05D80CFB023302EB98
:104480008202DBB25200401E491EEFD185F8833311
:1044900054A111A8FCF721F857A102A8FCF71DF8B8
:1044A00041F2A2302118322202A8FBF7E5FF0C22CC
:1044B00016A902A8FBF7E0FF4CA102A8FCF70DF833
:1044C00002A8FBF7EBFF024602A94046FDF728FDD4
:1044D000D5F82001C1683143C16020460BF0AEFA27
:1044E000002211464846FDF719FC95F8E00310B389
:1044F00043A102A8FBF7F1FF062204F59F5102A891
:10450000FBF7BAFF41A102A8FBF7E7FF02A8FBF700
:10451000C5FF024602A94046FDF702FDD5F820017D
:10452000C1683143C16020460BF088FA0022114671
:104530004846FDF7F3FB0FF2D80A5046FBF7AEFFF3
:10454000024651464046FDF7EBFCD5F82001C16814
:104550003143C16020460BF071FA002211464846F3
:10456000FDF7DCFB0FF2B40A5046FBF797FF02465B
:1045700051464046FDF7D4FCD5F82001C1683143CF
:10458000C16020460BF05AFA002211464846FDF75A
:10459000C5FB386840F480403860B5F8980320F0D7
:1045A0000800A5F8980321B00020BDE8F08F386816
:1045B00040F480403860B5F8980320F00800A5F872
:1045C0009803642003F05AF9204600F0A4FD21B0BE
:1045D0000120BDE8F08F0000180802403C5245530E
:1045E00045543E00000000003C4D41433E000000A9
:1045F0003C485645523E00003C4E414D45000000AF
:104600003C424F4E444D4143200000003E200000FC
:104610003C444953424F4E443E0000003C41445606
:104620004741503530303E00000000002DE9F04396
:104630008BB00446DDE91205DDF850C06562E36128
:10464000C4E905122084A4F828C0B6208DF82400FF
:1046500001260DF124086427CDF8008033467E2220
:10466000D0219F48CDE9016704F062FA00250028B7
:1046700018BF4FF0020956D0218D0122606A03F065
:10468000B2FA0195029503950495208D218CCDE910
:1046900002690843CDE900066946606A03F0A2F9A1
:1046A000218C0022E06903F09EFA218D0022606ACD
:1046B00003F099FA012003F0E1F8218D0122606AEC
:1046C00003F091FA012003F0D9F8218D0022606AED
:1046D00003F089FA012003F0D1F8218D0122606AEC
:1046E00003F081FA012003F0C9F8218C0122E0696E
:1046F00003F079FA012003F0C1F801956946606A78
:1047000003F070F900F03CFB0A2003F0B7F8CDF895
:10471000008001237E22D0217148CDE9016704F099
:1047200007FA0028A8D19FED6F0A256384ED0E0AD1
:104730009FED6D0A682084ED0F0A84F840000A207E
:1047400003F09CF811208DF80C0003A8CDE90006B9
:104750004FF47A777E220123D0210297604804F03B
:10476000E7F9322003F08AF815208DF80C0003A831
:10477000CDE900067E220123D0210297584804F09B
:10478000D7F9642003F07AF819208DF80C0003A8FB
:10479000CDE900067E220123D0210297504804F083
:1047A000C7F90A2003F06AF803A8CDE900064FF024
:1047B0001C0840228DF80C800123D0210297484824
:1047C00004F0B6F90221204600F092F803A8CDE9E2
:1047D000000642228DF80C800123D0210297404828
:1047E00004F0A6F90021204600F0E6F8204600F08B
:1047F0005FF90595069503A81721CDE900010395FA
:10480000079504950422012302970895D121344885
:1048100003F0A4FFBDF90C10DFED340A00EE101A0E
:10482000BDF90E00BDF91020B8EEC00A20EE200A36
:1048300084ED120A00EE100AB8EEC00A20EE200A3B
:1048400084ED130A00EE102AB8EEC00A20EE200A0A
:1048500084ED140ABDF9141094ED0F0A00EE901ABD
:10486000BDF91620BDF91800F8EEE00A60EE200A46
:10487000C4ED1A0A00EE902AF8EEE00A60EE200A73
:10488000C4ED1B0A00EE900AF8EEE00A20EE200AC2
:1048900084ED1C0ABDF91A10D4ED0E0A00EE101AB0
:1048A000BDF91C00BDF91E20B8EEC00A20EE800A3A
:1048B00084ED160A00EE100A0020B8EEC00A20EEC1
:1048C000800A84ED170A00EE102AB8EEC00A20EE26
:1048D000800A84ED180A66850BB0BDE8F0830000FD
:1048E000F0390320B2CC1C3AF8C1F93B9A99993EB1
:1048F00010B503249FED2B0A84B001234FF47A7C7A
:1049000029B1012915D0022926D0032937D080EDFD
:104910000E0A03A8CDE9000341228DF80C40CDF822
:1049200008C00123D021204804F002F904B000207F
:1049300010BD9FED1E0A412280ED0E0A05208DF864
:104940000C0003A8CDE90003CDF808C00123D02155
:10495000154804F0EDF8E9E79FED150A412280EDD6
:104960000E0A08208DF80C0003A8CDE90003CDF84D
:1049700008C00123D0210C4804F0DAF8D6E79FEDF7
:104980000D0A412280ED0E0A0C208DF80C0003A8C0
:10499000CDE90003CDF808C00123D021024804F07E
:1049A000C7F8C3E7E5FF1F3AF0390320E5FF9F3A58
:1049B0001000203BFAFF9F3B10B503249FED360A01
:1049C000012384B04FF47A7C052918D2DFE801F086
:1049D0004F3C281703009FED310A432280ED0F0A58
:1049E00004208DF80C0003A8CDE90003CDF808C021
:1049F0000123D0212A4804F09BF804B010BD80EDBB
:104A00000F0A03A8CDE9000343228DF80C40CDF82E
:104A100008C00123D021224804F08AF804B010BD58
:104A20009FED200A432280ED0F0A02208DF80C0032
:104A300003A8CDE90003CDF808C00123D021184810
:104A400004F076F804B010BD9FED170A432280ED04
:104A50000F0A03A8CDE900038DF80C30CDF808C08B
:104A60000123D0210E4804F063F804B010BD9FED7F
:104A70000F0A432280ED0F0A00208DF80C0003A8D6
:104A8000CDE90003CDF808C00123D021044804F08B
:104A90004FF804B010BD0000F8C1F93BF8C1793BF4
:104AA000F03903208DC1793C8DC1F93C8DC1793D30
:104AB00070B584B080208DF80C00012403A8CDE9E6
:104AC00000044FF47A754C222346D02102954D48BC
:104AD00004F02EF8322002F0D1FE03A8CDE9000444
:104AE0004F228DF80C400123D0210295454804F057
:104AF0001FF84B208DF80C0003A8CDE900044E22CE
:104B00000123D02102953F4804F012F804208DF8CB
:104B10000C0003A8CDE900044F220123D021029507
:104B2000384804F005F851208DF80C0003A8CDE9B1
:104B300000044E220123D0210295324803F0F8FFF1
:104B40000E208DF80C0003A8CDE900044F220123AC
:104B5000D02102952B4803F0EBFF52208DF80C007A
:104B600003A8CDE900044E220123D0210295254857
:104B700003F0DEFF02208DF80C0003A8CDE900044D
:104B80004F220123D02102951E4803F0D1FF03A834
:104B9000CDE900044C264E228DF80C600123D02173
:104BA0000295184803F0C4FF42208DF80C0003A8BA
:104BB000CDE900044D220123D0210295114803F0D4
:104BC000B7FF08208DF80C0003A8CDE900044422AB
:104BD0000123D02102950B4803F0AAFF03208DF892
:104BE0000C0003A8CDE9000401233246D021029530
:104BF000044803F09DFF322002F040FE04B0002084
:104C000070BD0000F039032070B5446C84B0002CF6
:104C10004FF000054FF0B60008BF4FF0FF354FF0E2
:104C20007E024FF0010603A98DF80C00CDE90016B5
:104C30004FF47A70029033464FF0D0010F4803F0E2
:104C400077FF0F2002F01AFE95B9E6750C2060750B
:104C5000142121750021A175E67360731020207363
:104C60000320A0736068A0606069A061E0682061B3
:104C7000002D0CBF0020012004B070BDF0390320CE
:104C800000B5408D83B001281EBF4FF0FF3003B048
:104C900000BDCDE900230A460123D121024803F0DB
:104CA000BFFE03B000BD0000F039032030B585B071
:104CB000FFF7AAFF10208DF80C00012503A8CDE90D
:104CC00000054FF47A747E222B46D02102942B48A3
:104CD00003F02EFF642002F0D1FD14208DF80C00AB
:104CE00003A8CDE900057E220123D02102942348A8
:104CF00003F01EFF642002F0C1FD80208DF80C003F
:104D000003A8CDE900054C220123D02102941B48C1
:104D100003F00EFF642002F0B1FD00208DF80C00BE
:104D200003A8CDE900054F220123D02102941348A6
:104D300003F0FEFE4B208DF80C0003A8CDE9000522
:104D40004E220123D02102940C4803F0F1FE64208E
:104D500002F094FD18208DF80C0003A8CDE90005A1
:104D60007E220123D0210294044803F0E1FE642056
:104D700002F084FD05B0002030BD0000F0390320B2
:104D8000104810B5016841F400110160016821F478
:104D9000001101600D480C494FF4804201604EF64D
:104DA0006021416000218160C0E90312416181619D
:104DB000C1618021016203F0D7FB002808BF10BD4C
:104DC00072B6FEE72038024000540040F03903205C
:104DD00030B50446018D85B0406A012202F003FF20
:104DE00000250195029503950495208D218C08439B
:104DF0000090012001900290022003906946606AB1
:104E000002F0F0FD218C0022E06902F0ECFE218D21
:104E10000022606A02F0E7FE012002F02FFD218DE2
:104E20000122606A02F0DFFE012002F027FD218DE1
:104E30000022606A02F0D7FE012002F01FFD218DE2
:104E40000122606A02F0CFFE012002F017FD218CE2
:104E50000122E06902F0C7FE012002F00FFD01957A
:104E60006946606A02F0BEFD05B030BD10B504466B
:104E7000002060852046FFF719FF606902F0E1FE1F
:104E80002046BDE81040FFF7A3BF0146002060297F
:104E900068D031DC212918D019DC122960D009DC56
:104EA000012919BF0229032940F201207047112965
:104EB00058D07047132947D0142904BF06207047E3
:104EC00015294DD0202918BF704715207047322969
:104ED00044D008DC222918BF23293BD0302918BF31
:104EE00031293BD07047402918BF412936D042298B
:104EF00038D0512932D070478F2931D00FDCA1F141
:104F000080010F2928BF7047DFE801F0281E202C00
:104F1000202208080808240826082C00EBE79D2911
:104F20001CD007DC90291CBF9129922916D0932907
:104F300018D070479E2911D09F2911D0AB2911D0CC
:104F4000AD2908BF892070470320704704207047AF
:104F500021207047192070471120704701207047A9
:104F6000052070470220704710B5044600F58050B8
:104F7000C0F824110968C0F8201104F50960FDF794
:104F80004CF92046FDF749F941F27810211841F219
:104F900038102044BDE810404FF4007210F040BBC0
:104FA00000F50960FCF7BABE00F50960FDF756B8D8
:104FB00041F2381210B502449368D2F834C0D46874
:104FC0000CF80410D168491CD160D168994202D311
:104FD000D168C91AD160D169491CD161116A491CD3
:104FE0001162516A491C516200F001F810BD0420A1
:104FF00001F0A2B830B500F580540546D4F8280178
:1050000085B010F4804F50D0D4F8280120F48040AF
:10501000C4F8280103AA02A92846FCF77FFED4F8A9
:10502000280110F4804F0AD0D4F82401806B006866
:105030004068002804BF2846FFF7DCFF39E0284617
:10504000FDF7E8F8002834DD01AA69462846FDF797
:10505000CAF8D4E94810806B4A69006822F08002DF
:105060004A61016821F0010101600099C160019964
:105070004160016841F010010160D4F8280140F45A
:105080008040C4F82801D4F8280140F00200C4F898
:105090002801D4E94801896B09680A6842F00102D5
:1050A0000A60416941F08001416105B04FF0FF3075
:1050B00030BDD4F8280120F0020020F48040C4F86C
:1050C0002801D4E94810806B0068026822F01002C1
:1050D0000260026822F001020260486920F080004C
:1050E000486105B0002030BDF8B514460D460646AF
:1050F0006A462146FCF7E6FF224629460098FBF760
:10510000F8F93046FCF7AAFF304600F002F800201C
:10511000F8BDAFF3008030B500F580540546D4F8F3
:10512000280183B010F4804F0DD0D4F82401806B97
:1051300000684068002804BF2846FFF75BFF6FF057
:10514000010003B030BD2846FDF764F80028DEBF3B
:105150004FF0FF3003B030BD01AA69462846FDF785
:1051600042F8D4E94810806B4A69006822F0800256
:105170004A61016821F0010101600099C160019953
:105180004160016841F010010160D4F8280140F449
:105190008040C4F82801D4F8280140F00200C4F887
:1051A0002801D4E94801896B09680A6842F00102C4
:1051B0000A60416941F08001416103B0002030BDC7
:1051C00000F58050D0F824211168496911F0800F52
:1051D00008BF7047D0F8281111F4804F1CBF916BA5
:1051E000096807D04B68002B1CBFD0F8283113F496
:1051F000804FF7D1D0F8281121F0020121F480412D
:10520000C0F82811D0F82011906B0068026822F0D5
:1052100010020260026822F001020260486920F078
:1052200080004861704770B505460446D0F8840890
:1052300050B1218811F0020F04BF284600F006F893
:10524000D4F884180029F4D1002070BD10B50448AA
:1052500000F008F8BDE810400148FFF75CBF00000F
:105260004423002000F58051D1E94801896B0A6888
:10527000016811F0800FFBD0011D9160C16821F41D
:105280000051C160416941F080014161C16841F450
:105290000051C1607047000018B50C46D2F8841068
:1052A0000C2928BF18BDDFE801F006192C3F526514
:1052B000788B9EB1B8C36A49009101F1480203237B
:1052C000243101F003FA6748009000F1480200F130
:1052D00024010323204601F0F9F918BD6249009129
:1052E00001F148020323243101F0F0F95F480090F6
:1052F00000F1480200F124010323204601F0E6F901
:1053000018BD5B49009101F148020323243101F0EB
:10531000DDF95848009000F1480200F12401032310
:10532000204601F0D3F918BD5349009101F148021C
:105330000323243101F0CAF95048009000F14802DB
:1053400000F124010323204601F0C0F918BD4C49A7
:10535000009101F148020323243101F0B7F94948D3
:10536000009000F1480200F124010323204601F0DF
:10537000ADF918BD4449009101F1480203232431DD
:1053800001F0A4F94148009000F1480200F1240125
:105390000323204601F09AF918BD3D49009101F11F
:1053A00048020323243101F091F93A48009000F1BA
:1053B000480200F124010323204601F087F918BDBB
:1053C0003549009101F148020323243101F07EF9AF
:1053D0003248009000F1480200F1240103232046E6
:1053E00001F074F918BD2E49009101F14802032320
:1053F000243101F06BF92B48009000F1480200F1D4
:1054000024010323204601F061F918BD2649032336
:1054100001F148020091243107E024490B88A3B12F
:105420000A1D009201F58272443101F04FF90CE03F
:105430001E49B1F8C43143B101F5E472009201F59F
:10544000327201F5027101F041F91948009000F142
:10545000480200F124010323204601F037F918BD6A
:10546000D46D01080C720108406E010878720108C1
:10547000AC6E0108E4720108186F0108507301084E
:10548000846F0108BC7301085C7001089474010802
:10549000347101086C750108F06F01082874010867
:1054A000A0710108D8750108C8700108585D002076
:1054B000007501082DE9F04F83B0FE4800F053FE5F
:1054C000FD4DFE4C002800F02E82D5F818014FF05B
:1054D000000710F0800F4FF0AD067ED004F1C00E33
:1054E000DEF82000202869D9DEF820004FF02009DE
:1054F0004FF48051B0FBF9F091FBF9F1A0EB0108FA
:1055000004F1C401B8F1000F04DD226812F4806FC9
:1055100000F04F81DEF8148000230028C8BFDFF8B8
:10552000A0E339DDD5F8182102F07F0202EB580222
:105530004FEAE27C02EB1C5C4FEA2C3CCCF1000C05
:1055400002EB0C323EF812C0DE4AD2F80CB0D2F8B0
:1055500034A02AF80BC0D2F80CC00CF1020CC2F82F
:105560000CC0D2F80CC0CCF30B0CC2F80CC0D2F8B3
:105570001CC00CF1020CC2F81CC0D2F820C00CF107
:10558000020CC2F820C0D2F824C00CF1020CC2F800
:1055900024C05B1C9842C5DCCB4A09FB00F0936831
:1055A000D2F814C084449C4524BFBCFBF3F808FB2C
:1055B00013CCC2F814C0CA69101AC861DFF804839A
:1055C000D8F81C00802840F2AE81206810F4806F6B
:1055D00040F0A98100F006B9FFE7206AB0F5806FBE
:1055E00063D9D5F81801202894BFDFF8E082DFF8EE
:1055F000E082206A820AA2F12001B648002903DD78
:10560000236813F4806F5DD0D4F814900023002A2F
:105610003ADD00BFD5F8181101F07F0101EB590107
:105620004FEAE17C01EB5C4C4FEAEC3CCCF1000C26
:1056300001EBCC3138F811C0A749D1F80CB0D1F842
:1056400034A02AF80BC0D1F80CC00CF1020CC1F840
:105650000CC0D1F80CC0CCF30B0CC1F80CC0D1F8C5
:105660001CC00CF1020CC1F81CC0D1F820C00CF118
:10567000020CC1F820C0D1F824C00CF1020CC1F812
:1056800024C05B1C9A42C5DC8C494FEA822C8B6893
:105690004A6962449A4224BFB2FBF3F808FB132222
:1056A0004A61C169A1EB0C01C161DFF82C82D8F815
:1056B0001C00802840F23781206810F4806F40F091
:1056C000328112E07D4B4FEA812C9A68596961441E
:1056D000914224BFB1FBF2F909FB12115961C16972
:1056E000A1EB0C02C26120228EE7D8F81C00B0F5B5
:1056F000006F0FD978498A68086900F58060824296
:105700009CBFB0FBF2F303FB12000861C869A0F56F
:105710008060C861206840F4806020606A460A2189
:105720006E48FCF7CFFC00996D4801F8016B01F859
:10573000016B83896B48C06901F8013B1B0A01F8C2
:10574000013B030A01F8010B674A01F8013B030C16
:1057500001F8013B000E01F8010B0091107801F8EF
:10576000010B00911088000A01F8010B00911780CD
:105770005A48FCF773FCD8F810005C4980220144B9
:105780005648FCF79DFB5AA002220068019001A92F
:105790005248FCF7C5FB5148FFF7BDFC4E488268F4
:1057A000016980318A427CD8B1FBF2F303FB12110C
:1057B000B1E0DFF814C14FEA481ADCF80830DCF831
:1057C000142052449A4224BFB2FBF3FB0BFB13227A
:1057D000CCF81420CA69A2EB0A03CB61A0EB080045
:1057E00098E600BFD8F81C00B0F5006F0FD9354817
:1057F0008168026902F5806291429CBFB2FBF1F3BD
:1058000003FB11220261C169A1F58061C1612068B9
:1058100040F480602060D5F81801DFF8D89000F0DF
:105820007F000728DFF8D0A02C486A464FF00A0115
:105830007DD2FCF747FC0098294900F8016B00F87D
:10584000016B8B892749C96968224A43CC460021EC
:10585000E2FB09C100F8013B1B0A00F8013B090902
:1058600000F8011B0B0A00F8013B0B0C00F8013B90
:105870001D4A090E00F8011B0090117800F8011B69
:1058800000901188090A00F8011B00901780134846
:10589000FCF7E4FBD8F81000802200EB0A010F4867
:1058A00000E038E0FCF70CFB11A00222006801A91F
:1058B000019023E018210020C4040020C49E04208D
:1058C0007C3E0420C49F0420849F04207C3E03204F
:1058D0007CBE0320C89E0420449F04204423002053
:1058E000005D0020C4A00420640300207C4E04203E
:1058F000DADA0000277002277C5604204848FCF7BB
:105900000FFB4748FFF707FC464882680169803172
:105910009142BFF449AF0161C1698039C16120681A
:1059200020F480602060206810F4806F00E019E0AF
:1059300004BF03B0BDE8F08F3B48006800286CD17D
:105940003A480068D5F8180110F0800F206820F45C
:105950008060206053D033488268016980318A4278
:1059600053D956E0FCF7AEFB0098314900F8016BC3
:1059700000F8016B8B892F49C96968224A43DFF817
:10598000B8C00021E2FB09C100F8013B1B0A0A096B
:1059900000F8013B130A00F8012B284900F8013BED
:1059A000130C00F8013B120E00F8012B00900A784E
:1059B00000F8012B00900A88120A00F8012B0090D1
:1059C0000F801748FCF74AFBD8F81000802200EB44
:1059D0000A011348FCF774FAAFF2EC00006801907A
:1059E000022201A90E48FCF79BFA0D48FFF793FB32
:1059F0000C4882680169803191428CD3D4E610480A
:105A0000826801698031914203D3B1FBF2F303FB59
:105A100012110161C1698039C16103B0BDE8F08F25
:105A200044230020C49F0420BC640240B8640240A8
:105A3000005D0020C4A0042027700227640300201A
:105A4000449F04202DE9F04FB24E89B00024B46188
:105A500074614FF0010834610420CDE9000803208F
:105A6000CDF80880CDE90304AB4F6946384601F014
:105A7000B9FF0AF09DFDAA48A84901604EF66021D1
:105A8000C0E901144FF48041C0E903414461802121
:105A90008461C0E9074102F067FD08B172B6FEE714
:105AA000A148A04D4FF4827B0560C0E901B4C460F9
:105AB0004FF400790461C0E90549C46104624FF004
:105AC0000A0A4462C0E90A4A05F084FA08B172B6CB
:105AD000FEE797489549C0E9001B4FF4006BC0E909
