:020000040800F2
:1000000028550020D5000008E52D0008AD2800087F
:1000100000000000000000000000000000000000E0
:10002000000000000000000000000000D52E0008C5
:100030000000000000000000E72D0008D72E000897
:10004000E7000008E7000008E7000008E7000008F4
:10005000E7000008E7000008E7000008E7000008E4
:10006000E7000008450C0008550C0008E7000008F0
:10007000B1040008E7000008E7000008E7000008F6
:10008000E7000008712F0008E7000008E7000008FB
:10009000E7000008512F0008612F0008E700000862
:1000A000E7000008E7000008E7000008E700000894
:1000B000E70000080D380008E7000008E700000826
:1000C0000348854600F0E2F900480047B5380008CB
:1000D000285500200448804704480047FEE7FEE713
:1000E000FEE7FEE7FEE7FEE7412F0008C10000083B
:1000F00030B50B46014600202022012409E00D46C0
:10010000D5409D4205D31D469540491B2546954047
:1001100040191546521E002DF1DC30BDF0B51FB45C
:100120000646002082B005464024019100901BE065
:10013000019922460F46304600F055F9049A059B76
:10014000801A994110D310461946224600F03BF917
:10015000361A8F410197224601200021009F00F0AE
:1001600032F938184D4100902046641E0028DFDC2B
:10017000019B00982946324607B0F0BD0549064A62
:1001800008685043054A80180860400870470149D4
:10019000086070471C0000206D4EC64139300000D9
:1001A00003460B439B0703D009E008C9121F08C090
:1001B000042AFAD203E00B780370401C491C521E3B
:1001C000F9D27047D2B201E00270401C491EFBD246
:1001D00070470022F6E710B513460A460446194652
:1001E000FFF7F0FF204610BDF8B502464A40D40F95
:1001F00042004B0052085B089A4202D2024608466F
:1002000011464A0023D0C30D4A00DDB2120EAD1ACA
:10021000202D35DA49020126490AF6058A19002CF3
:1002200000D0524220214F1B1146B9402A411018DC
:10023000C20D9A4221D0002C17D0012D08DCDA051E
:10024000801AD20F8019D207DBB200F0E5F8F8BDB2
:10025000DA05801A012340001B06C01880185A4294
:100260008018CA0F1043490007E04908C20711432C
:10027000DA05801A80194008801800F0C5F8F8BD2A
:1002800061000122511A001BF7E70122D2075140F9
:10029000AAE70122D2075040A6E7024670B54A40BD
:1002A000D30FDB0740002DD04A002AD0010E140ED8
:1002B000000212020919400A520A8418E501044694
:1002C0005443000A120A2E045043A4194219200C68
:1002D000C543AA18120C0125AD03521C5219120471
:1002E0007F39240400D0521C104301D44000491E21
:1002F000C2B20C06C0092018401C4008802A02D057
:1003000003E0002070BD40084000002900DA002012
:10031000184370BD70B502464A40D50F40004A00F0
:10032000ED0740085208002814D0002A12D0C40D4E
:10033000D30D41020120C0055202490A520AE41AB3
:10034000091812187D34914201D3641C00E0490061
:10035000002C01DA002070BD0023914201D3891ADC
:100360000343400849000028F7D100290AD09142F0
:1003700002D10121C90705E0914201D2012101E02A
:100380000121C943E005C018401900F03DF870BDD7
:1003900010B500229623114600F03EF810BD410032
:1003A00040020122400AD205090E80187F2901DA95
:1003B00000207047962903DC9622511AC8407047E6
:1003C00096398840704710B5202A04DB0146203A50
:1003D0009140002010BD914020239C1A0346E34029
:1003E0001943904010BD10B5202A04DB0846203A7E
:1003F000D040002110BD0B46D340D0402024A21A8B
:1004000091400843194610BD002904DA401C4900F8
:1004100001D140084000704770B40024050C05D19C
:100420001024000402D1002921D01124050E01D18D
:1004300000020834050F01D10001241D850F01D1F0
:100440008000A41C002801DB4000641C002908D0A7
:1004500020252E1B0D46F540A14000D00121294347
:10046000084301061B1B000ADB1D02D5002070BCDF
:100470007047DB05181880180029F8DA401C49007D
:10048000F5D170BC4008400070470000064C0125C3
:10049000064E05E0E36807CC2B430C3C984710342C
:1004A000B442F7D3FFF710FEFC3A00081C3B0008EB
:1004B000704730B523231B02C3185C6B002C26D079
:1004C0001C6B0125A40024186D03641964680C607A
:1004D000196B890008181121490240184068106002
:1004E000186B401C4028186B01D2401C00E03F38BC
:1004F0001863586B401E586398881188401898807C
:100500009888D988401898800020D88030BD002075
:10051000C04330BD70B5232212028218536B002BEA
:100520002AD0174BC3181C790025002C12D1146B4C
:100530000126A40024187603A41964689461146B3E
:100540001126A40024187602A41964681462D561E7
:1005500001241C71D46996693619641CD4613478FD
:100560000C70D169126A914204D31D7100221146A8
:10057000FFF79FFF002070BD0020C04370BD00004A
:100580002023000030B523231B02C3189C8894420B
:1005900021DD9C6A0125A40024186D0364196160A3
:1005A000996A890008181121490240184260988808
:1005B000801A9880986A401C4028986A01D2401C92
:1005C00000E03F389862586B401C5863986B401CA1
:1005D0009863002030BD0020C04330BD232100B50A
:1005E0000022090241180A750A698968FFF7CAFFE3
:1005F000002000BDF0B523231B02C318DD6A0124CF
:100600006403651BADB20026A94206DB9F887F1BF1
:100610009F80DF887D19DD80DE629D888D4215DD3B
:10062000DD6A801C281819619860DE6001251D753F
:10063000DD6A6D18A54202D2DC6A611802E0DD6A4B
:10064000091B6918D96210600020F0BD0020C0436A
:10065000F0BD232212028018C26803699A4207D2B1
:10066000C26883689B18521CC260197000207047D2
:10067000C168491CC1600020C0437047232200218B
:10068000120280180175C160C16B491CC163002052
:1006900070472321090240180169C068081A704791
:1006A000232109024018406B70470121232249038E
:1006B00012028018818070470146002042295CD0D8
:1006C00029DC202953D014DC12294ED009DC2C4A15
:1006D000012948D0022946D0032944D0112907D145
:1006E0004BE013292AD0142901D0152900D1062066
:1006F000704730292DD007DC212938D0222901D09C
:100700002329F5D119207047312922D0402920D042
:100710004129F8D11DE085292DD011DC812928D06F
:1007200006DC512915D0602927D08029EBD110E0B3
:10073000822903D0832920D08429E4D10420704762
:10074000922906D007DC8E2917D0902901D0912953
:10075000F5D10120704793290FD0AB290DD0AD29D9
:10076000F8D1892070471046704705207047152042
:100770007047032070472120704702207047000017
:100780000102000010B504468D20C0012018416010
:10079000096801608D2080012018FFF786FF204640
:1007A000FFF783FF0448FF22211803480132403835
:1007B000201803F06EF810BDD84600008D2310B548
:1007C0009B01C018FFF775FE10BD8D2110B5890182
:1007D0004018FFF703FF10BD8D2210B5920180185D
:1007E000FFF737FF10BD0000F1B582B08D210298F0
:1007F00089014018009000250298ED4349004418F3
:1008000020680168890647D5C169890644D5C16950
:1008100020229143C1612068406AC6B2A068214F7E
:10082000800537D52321009809024018007D002853
:1008300010D13046FFF740FF002808DD3046FFF7B3
:100840003BFF014601AA0098FFF7D4FE02E00098A2
:10085000FFF714FF0098FFF71CFF002809DD314661
:100860000298FFF7B9FF401C16D10098FFF706FF6A
:100870000BE03E2E06D00098FFF700FFA068B843BB
:10088000A06009E00298FFF7A0FFA068B843A0604D
:10089000002501E03C2E01D02846FEBDA06838436B
:1008A000F5E700000002000010B5FFF733FE10BDB1
:1008B000F8B514460D4606466A462146FFF79AFEED
:1008C000224629460098FFF76BFC3046FFF786FE6C
:1008D000304600F002F80020F8BD00BF7047F8B5C0
:1008E000054600208D21C043C9016C1821680A68A3
:1008F00012061BD5C969090618D52846FFF7D0FE90
:100900008026002805DD69462846FFF7CDFF002830
:1009100004D020680168B143016006E02068C16925
:100920000906FCD56946097881620020F8BD10B53A
:100930000446006800680169C90709D001694908CF
:1009400049000161207A800702D5204600F026F890
:10095000206800680169C906090F06D001691E22D6
:1009600091430161204600F0D7F810BD10B5838295
:1009700001600446828001209040E08080208861F0
:1009800021680020086101F061F90349FFF7B0FB1D
:100990002168401E486010BD1027000010B50446B5
:1009A000006801F037FD2168A089C8602168208AAD
:1009B0004861206801F0A8FC2068006801694909C5
:1009C00049010161A088012281002068006802F0CD
:1009D00023FB20680068416C0122D203114341646B
:1009E000206801F0E7FC04202081204600F002F896
:1009F00010BD000008B5828A0B48002A018802D089
:100A0000012A05D101E0022200E008221143018001
:100A100006A109680091007869468870042204489C
:100A2000FFF746FF08BD0000000000203C83003EA9
:100A30006004002010B5418200F002F810BD0000F3
:100A4000F8B50546204E214F408AFFF7A1FC204C07
:100A50002146FFF75FFC3146FFF71FFC3946FFF7E1
:100A600059FC1C49FFF711FC1B49FFF716FC1B49F9
:100A7000FFF70FFC1A49FFF74DFC2146FFF70DFC6D
:100A8000FF21C905C84201D3002002E0A04200DDD9
:100A90002046FFF784FC84B2A88A00280CD00128E5
:100AA00009D110210F4800F03FFC042223461021F9
:100AB0000C4800F025FCF8BD00210A4800F034FC89
:100AC000042223460021F3E700008C420000614429
:100AD00000FF7F47FEB2FB3D00002041DF4F9D3FFE
:100AE000333353408400002010B55B1E029C038208
:100AF000828100224181D2434282C481026813680C
:100B00008288120134329A1814600268D160006839
:100B10000021416110BD000010B50446006801F0DD
:100B200079FC20680068016A0C4A114208D1016A08
:100B30009210114204D1416C0122D20391434164CD
:100B4000A088002281002068006802F065FA204633
:100B500000F006F80020208110BD000011110000F7
:100B600008B5828A0B48002A018802D0012A05D1E3
:100B700001E0022200E008229143018006A10968F9
:100B8000009100786946887004220448FFF790FEBF
:100B900008BD0000000000203C83003E60040020EF
:100BA00010B50189002903D104210181FFF7F6FE68
:100BB00010BD0000F0B50524240785B08021204633
:100BC00000F054FD002800D0012002904021204672
:100BD00000F04CFD002800D00120184D002402AF89
:100BE0000390A600B85900281DD0A85900281CD091
:100BF00000F042FDA959411A0491182021464143B1
:100C00000F4809180191009188890A214000FFF7D7
:100C10006FFA0099098A491C48430499884207D20F
:100C20000198FFF779FF002001E000F025FDA851B1
:100C3000641C022CD5DB05B0F0BD000004000020D0
:100C4000404C002010B5024800F0A2FB10BD00008F
:100C5000704C002010B5024800F09AFB10BD000057
:100C6000CC4C002010B50446006C09498008800077
:100C700040186064207814210838FFF739FA0449D5
:100C80008031A164C106C90E01208840E06410BD16
:100C9000000802400179084B8906890E8A00D218A3
:100CA0000265054A4432491E42658A07920F0121B6
:100CB0009140816570470000FC08024072B6FEE773
:100CC000F8B500270646044640360097307D0D46AD
:100CD00001280FD001203075206801F0ECFD0028BC
:100CE0000AD0A06D20210843A0650127002030759F
:100CF0003846F8BD0220F8BD686802287ED001227F
:100D00002169D207914202D0121D914206D120687A
:100D10002968826A4903490B0A436EE0C206D20E73
:100D20000F20216E904081432868430302D0C307FF
:100D30004BD102E04000C00E48E0830701D50120FE
:100D400044E0430701D5022040E0030701D503201A
:100D50003CE0C30601D5042038E0830601D5052018
:100D600034E0430601D5062030E0030601D5072014
:100D70002CE0C30501D5082028E0830501D5092012
:100D800024E0430501D50A2020E0030501D50B200E
:100D90001CE0C30401D50C2018E0830401D50D200C
:100DA00014E0430401D50E2010E0030401D50F2008
:100DB0000CE0C30301D5102008E0830301D5112006
:100DC00004E0400301D5122000E0002090400143E0
:100DD00021666968E2698808401C904210D8206842
:100DE0002B68826A9C46C906C90E0F238B409A4322
:100DF00063469B001B0F8B401A4300E03BE082627E
:100E00002168AB6828684A690002824318404001A3
:100E1000400902434A612868002800DB66E72B4A44
:100E2000116807239B051940294B984214D10B02E6
:100E300012D4C0020143104601F041FD2648254965
:100E40000068FFF755F90C21401C484300E0401EA4
:100E500000900028FBD149E7204B984203D1CB01F9
:100E600001D4800205E01E4B9842D7D14802D5D468
:100E70005802014325E001212069C907884202D0B8
:100E8000091D884206D120682968826A4903490BF6
:100E90008A43826228680028C0DA0C4A1168072356
:100EA0009B0519400A4B984201D1C00208E00B4B48
:100EB000984201D1800203E0094B9842AED1400232
:100EC0008143104601F0FBFC10E7000008270140B9
:100ED000001000B0400D03000C000020004000B8DE
:100EE000002000B4FEB50027044601973E46029755
:100EF0000097002805D02546A06D2035002802D097
:100F000007E00120FEBD204600F0FCF8E665542015
:100F1000065520688168C900C90F12D18168724ADC
:100F20001140012212071143816071486F49006826
:100F3000FFF7DEF84000801C00E0401E0090002813
:100F4000FBD120688168C900C90F08D1A16D1022AA
:100F50001143A165E16D01221143E165174601F0DE
:100F6000AAFCA16DC90601D4002804D0A06D1021EF
:100F70000843A065B4E0A06DFF2101318843022140
:100F80000843A065206801F092FC00286DD1217E05
:100F9000A06889030843617ECA03A17E4B031A43FC
:100FA0001043226B002A01D0012212031043E26891
:100FB00010432269002A02DA5200520801E001229D
:100FC000520510432A7B52001043019A10432A789D
:100FD000012A09D1002922D0A16D20221143A16547
:100FE000E16D01221143E165616A002906D0FF230A
:100FF000C1331940A26A0143104608432168CA68F8
:101000003C4B1A400243CA606168029A890F890703
:10101000E06C0A4310432A7F012A04D00CE001212E
:1010200009040843E0E7636C226C491C1A43A36C73
:101030000B4311461943084321680A692E4B1A4095
:1010400002430A6103216068890788420DD059076D
:1010500088420AD04900884207D0284A91680F2365
:101060009B0499431840014391600021626B206802
:1010700001F02CFC2249A26B206801F027FC0F2014
:101080002169C04300291CD00122520591420AD196
:1010900021688A6A227F9200121FD206D20E9040E7
:1010A000226E1043886220684069616B4007400FE0
:1010B00088420BD1E665A06D80088000401CA065C9
:1010C0000FE021688A6A02438A62ECE7A06D022180
:1010D000884310210843A065E06D01210843E065C5
:1010E00001273846FEBD0000E8FFFF7F400D0300EA
:1010F0000C0000200102DEFF02FCFF1F0027014060
:1011000004FFFF0708B500680A49884210D10A4861
:101110000268012109050A430260006800220840B4
:10112000009011460C2000F01BFB0C2000F00CFB83
:1011300008BD00000024014040100240F7B50446FD
:10114000002082B00E460090002C0FD0002E0DD053
:10115000607901280DD00120607102202071049D6A
:10116000102031680540042905D045E0012005B074
:10117000F0BD0220FBE700F07FFA07460498002844
:1011800009D020E000F078FAC01B012803D92068BC
:10119000406B000410D42068406B0004F2D4216836
:1011A000B069086416E000F067FAC01B01280AD98C
:1011B0002068406B002806DA206908210843206176
:1011C00003202071D3E72068406B0028EBDB216807
:1011D000B06948642168886C224AAA409043F26949
:1011E000AA40104388642068C16CFF22AA40914342
:1011F000326AAA401143C1643069012808D12268CB
:10120000906B1F21A94088437169A94001439163F4
:101210002268D16B0720A8408143B3683068184327
:10122000F3681843A8400843D0632068016801228E
:101230009203AA4091430160226811680A48A840BD
:1012400081437068A8400843106020680168C0228C
:10125000AA40914301600120207100206071009834
:1012600085E70000FF030000FE0F000070B50400DA
:1012700004D020790025002802D005E0012070BDAF
:101280006571204600F008F80220207125610120D8
:101290002071002070BD000010B586B004461421F6
:1012A0006846FEF796FF14492068884221D113480A
:1012B000C26B41040A43C263C26B0A400592416B90
:1012C000012211434163406B694610400590302074
:1012D000009003200190002002900520000700F0FC
:1012E00017F900221146112000F03AFA112000F0FF
:1012F0002BFA06B010BD0000007400400010024040
:1013000018B500240094002809D000680090002936
:1013100007D08018143000900360002018BD012011
:1013200018BD80180830F6E7F0B5002822D04279C1
:10133000012A21D001224271022303710668376815
:1013400010250C462C401546A5402F433760002938
:10135000016813D00D681F26760435401E46A6404E
:10136000B54202D14C681C434C60027100214171AE
:101370000846F0BD0120F0BD0220F0BD0B689B06C1
:10138000DB0E012BF1D14B6813434B60EDE70000FE
:10139000F0B42C490C6802681368056C1C273D40AA
:1013A0000426AE40264211D05E070FD513689B0677
:1013B00003D4146804239C4314604B68046C042217
:1013C0003C40A24013434B60016B1CE00227AF403E
:1013D000064627402036002F19D09F0717D51368DF
:1013E0009B0605D413680A24A3431360012272717B
:1013F0004B68046C1C2214400222A24013434B6031
:1014000000213171C16A00291AD0F0BC08470827B1
:10141000AF40274214D01B0712D513680E24A343F4
:1014200013604B68046C1C22144001221546A54031
:101430002B434B60C263727100213171416BE2E753
:10144000F0BC70470000024070B504003FD0254852
:10145000256814212818FEF74BFE80002064022026
:1014600026462036707128681F4908402860E168C8
:10147000A06862690843216911430843A1690843D0
:10148000E1690843216A084321680A68104308603B
:101490002046FFF7E7FB0121A06889030025884269
:1014A00000D165602079616C8006800E0860A06CB8
:1014B000E16C41606068401E03280AD82046FFF7AF
:1014C000E9FB206D0560606DA16D416004E00120C5
:1014D00070BD25656565A565E56301207071357191
:1014E000002070BDF8FFFDBF0F80FFFF70B5044600
:1014F00000F0C2F80546601C02D0044800782418A9
:1015000000F0BAF8401BA042FAD370BD10000020D2
:10151000F0B5002303249AE02A4601259D402A4085
:101520007ED00E79B607B60F012E01D0022E16D14D
:1015300086682746B4465E00B646B7406646BE4358
:10154000B446CF687646B7406646374387604668FC
:10155000AE430D79ED06ED0F9D40354345600D79A5
:10156000ED43AD0708D0C5685F002646BE40B543D1
:101570008E68BE402E43C6600D79AD07AD0F022DBB
:101580000ED1DD08AD002D18AC462D6A5E07F60EB3
:101590000F27B740BD430F69B7402F4365462F6201
:1015A00005685F002646BE40B5430E79B607B60F04
:1015B000BE402E4306604D68AD03AD0F46D09E0879
:1015C000264DB6007519AC462D6E9E07F60E0F27F8
:1015D000B740BD4305273F07B84201D100270FE0C0
:1015E0001F4FB84201D101270AE01E4FB84201D176
:1015F000022705E01C4FB84201D1032700E0052770
:10160000B7402F43154D664637662D684E689543A3
:10161000F60200D51543114F3D607D68954300E00B
:1016200014E04E68B60200D515437D600B4D803541
:101630006E684F689643BF0300D516436E602E68F0
:101640004F689643FF0300D516432E605B1C0A6863
:101650001546DA4000D05FE7F0BD000000180240F8
:101660000004005000080050000C005000690840C1
:1016700000D00120704700000148806870470000DA
:101680001000002002488168027889188160704744
:101690001000002010B5084800240168821511438D
:1016A0000160204600F00AF8002801D0012401E082
:1016B00000F028F8204610BD0020024070B50F4E03
:1016C000002431780546002915D07D20C000FEF7A2
:1016D0000FFD01460A480068FEF70AFD00F0A0FD74
:1016E000002808D1042D06D200222946401E00F011
:1016F00037F8756000E00124204670BD100000201E
:101700000C0000200EB5002001900E480168012257
:10171000114301600068104002900A484038C26BD3
:1017200001040A43C263C06B08400290502000903D
:10173000684600F019F800F09DF80120400200F022
:1017400065FD0EBD40100240002805DBC106C90E34
:1017500001208840014908607047000000E100E076
:1017600010B502F065F810BD10B5194A51687E2316
:10177000994303681943516016494A6801231B04C1
:101780009A434A600A689A430A60124A803A546847
:101790009C43546014689C4314604468E40302D57D
:1017A0000C681C430C604468A40302D54C681C43BD
:1017B0004C600179C90702D01168194311600079A2
:1017C000800702D5506818435060002010BD00000B
:1017D000007000408018024010B50F4C21680322B1
:1017E0005202914301432160C11FFF39FA390ED1E2
:1017F0000A480621006848430949FEF779FC401C65
:1018000002E0002805D0401E61694905F9D4002096
:1018100010BD032010BD0000007000400C0000202F
:1018200040420F0010B50C480621006848430B49A0
:10183000FEF75EFC0A490A680B149A430A60401CD2
:1018400002E0002805D0401E4A699205F9D4002024
:1018500010BD032010BD00000C00002040420F000E
:101860000070004002480168021411430160704793
:1018700000700040024841680122114341607047F6
:101880000070004010B50C460D490028486904D08E
:10189000800508D4FFF7E6FF05E0800503D5FFF7D4
:1018A000C1FF002809D10748016904229143016161
:1018B000012C03D040BF20BF20BF10BD30BF10BDE2
:1018C0000070004000ED00E0FEB50446006800270F
:1018D000794D7A4E800355D500200090F06BC00002
:1018E00007D4F16BA8050143F163F16B01400120BE
:1018F000009073480168821511430160FFF7BCFE38
:10190000019005E0FFF7B8FE0199401A022825D89A
:101910006B480068C005F5D5E86903210902084055
:101920000FD0616B81420CD0E86903210902EA699A
:101930008843012109040A43EA61EA698A43EA61AA
:10194000E861C0070FD0FFF797FE019008E0FFF7AE
:1019500093FE0199411A5B48814201D9032709E0AE
:10196000E8698007F3D5E869032109028843616BC0
:101970000843E8610098002804D0F16B01200007BB
:101980008143F1632078C00705D0686961688008E9
:101990008000084368612078800705D568690C21BC
:1019A0008843A168084368612078C00606D5686945
:1019B000032189028843E168084368612088800523
:1019C00006D56869032189048843A16908436861D1
:1019D0002088400506D56869032109058843E16927
:1019E000084368612078800606D5686903210903E9
:1019F00088432169084368612068410332480CD557
:101A0000696903229206236A914319436961216A35
:101A1000914202D1F1680143F160218849040ED559
:101A20006969626A89008908114369610122616AF2
:101A30009207914203D1F16892131143F16021683A
:101A4000090305D5696940229143A26A114369617E
:101A5000216889020CD5696901229205E36A9143E4
:101A600019436961E16A914202D1F1680143F16071
:101A7000216849020AD56969226B81431143696172
:101A8000216B814202D1F1680143F1602088000599
:101A90000FD5686903218903884361690843686138
:101AA000012160698903884203D1F06889000843F5
:101AB000F0603846FEBD00004010024000100240B9
:101AC000007000408813000000000001F8B50F46C8
:101AD000060043D04D4D28684007400FB84213D24E
:101AE0002868C008C00038432860FFF7C5FD0446D9
:101AF00005E0FFF7C1FD011B4548814261D8286818
:101B00004007400FB842F4D13068424C81070DD5F0
:101B1000400704D5A068072109030843A060A06816
:101B20000F2109028843B1680843A0603078C007DC
:101B300032D0706801280AD002280BD000280FD0BC
:101B40003449403103280ED0C969890704E021686F
:101B5000890301E021688901002906DB0120F8BD25
:101B600021684905F8E7096AEFE7A168C908C900D3
:101B70000143A160FFF780FD009006E0FFF77CFDC8
:101B80000099411A224881421BD8A0683821084098
:101B90007168C9008842F1D128684007400FB842F7
:101BA00017D91A480168C908C90039430160FFF70D
:101BB00063FD054607E0FFF75FFD411B14488142C6
:101BC00001D90320F8BD114800684007400FB84212
:101BD000F1D13078400706D5A06807210903884372
:101BE000F1680843A06000F031F8A1683C2289093F
:101BF0001140094A515CC906C90EC840074908602E
:101C000007480068FFF75AFDF8BD000000200240B9
:101C10008813000000100240743A00080C000020F5
:101C2000140000200648074900688968064A4904EC
:101C3000490F8900515CC906C90EC84070470000B1
:101C40000C00002000100240B43A000810B5204CEF
:101C5000A068204A8006400F16D0A0688006410F79
:101C6000501001290FD0A1688906490F022912D00E
:101C7000A0688006400F042823D0A0688006400F8B
:101C8000032821D0002010BD206801218004400FCE
:101C90008140104612E0E1688B07E1689B0F49061E
:101CA000490F491C032B00D01046FEF721FAE168CA
:101CB0004904490E4843E168490F491CFEF718FAE8
:101CC00010BD0120C00310BD7D20000210BD00002A
:101CD000001002400024F400F8B504007ED0207803
:101CE0003827C007ED4D002846D0A868E96838407D
:101CF0008907890F102802D008280BD001E003299A
:101D000008D001206268000482420AD12968014398
:101D1000296015E0286880032ED560680028DDD092
:101D20002AE0052301211B0489049A422A6802D172
:101D30000A432A60EAE782432A60286888432860C9
:101D4000606800280CD0FFF797FC064604E0FFF718
:101D500093FC801B642873D828688003F7D50BE0B8
:101D6000FFF78AFC064604E0FFF786FC801B642828
:101D7000F1D828688003F7D42078800769D5A8684F
:101D8000E96838408A070721920FC902102802D05B
:101D9000002813D001E0022A10D0E068002846D0C5
:101DA000286888432169084328602868FF21013199
:101DB00008432860FFF760FC06462CE02A685205BD
:101DC00002D5E268002A89D06A687F231B029A4301
:101DD00063691B021A436A60002800E08DE00ED19F
:101DE0002868884321690843286028680121800405
:101DF000400F8140AA48FEF77BF9AA490860AA482B
:101E00000068FFF75BFC002877D122E0FFF734FC85
:101E1000801B02289FD828684005F7D568687F2175
:101E200009028843616909020843686011E0296872
:101E3000FF20013081432960FFF71EFC064605E0C4
:101E400098E0FFF719FC801B022884D82868400519
:101E5000F7D42078954E00072ED5A8688006400F4D
:101E600003280AD0A0690028306A16D0012108434F
:101E70003062FFF701FC07460BE0306A80071BD594
:101E8000A06900289FD017E0FFF7F6FBC01B0228CF
:101E900070D8306A8007F7D50EE040084000306205
:101EA000FFF7EAFB074604E0FFF7E6FBC01B02284A
:101EB00060D8306A8007F7D4207840076CD5A868CE
:101EC00000278006400F042818D0E86BC00008D413
:101ED000E96B012000070143E963E96B0140012739
:101EE000009173480168C90519D40168821511432E
:101EF0000160FFF7C1FB00900DE083E0F06980070F
:101F00004AD5A06800287DD046E0FFF7B5FB0099D0
:101F1000401A02282ED866480068C005F5D5A16889
:101F2000012910D004200529F16911D04908490080
:101F3000F161F1698143F161A068002816D0FFF7D3
:101F40009BFB00900EE0F06901210843F061F3E78C
:101F50000143F161F7E7FFF78FFB0099411A5548FC
:101F6000814267D8F0698007F5D50EE0FFF784FB62
:101F7000009007E05EE0FFF77FFB0099411A4D48B3
:101F8000814257D8F0698007F5D4002F04D0E86B60
:101F9000012109078843E863E06900287BD0A9682C
:101FA0008906490F02294FD00126360602282868E3
:101FB00005D0B0432860FFF75FFB04463CE0B04328
:101FC0002860FFF759FB074604E0FFF755FBC01BED
:101FD00002282FD828688001F7D4616A206AA26A93
:101FE0000843E16A120211430843216B0843616B05
:101FF0000843E968304A11400843E86028683043E4
:10200000286000E045E0E868012109070843E8602E
:10201000FFF732FB044604E0FFF72EFB001B02280B
:1020200008D828688001F7D535E0FFF725FB001BAD
:10203000022801D90320F8BD28688001F5D4E8689A
:102040001E490840E86026E00128F4D0E868226ACA
:102050008107890F91421CD17021626A014091422F
:1020600017D17F21A26A090201401202914210D1C8
:102070001F214904E26A014091420AD10721490621
:10208000226B0140914204D1400F616B40078842AE
:1020900001D00120F8BD0020F8BD00000010024072
:1020A0000024F4000C000020140000204010024026
:1020B00000700040881300008C80C111FCFFFEEE10
:1020C00070B504460120002C4BD025462035687A97
:1020D000002806D128721120C0026060204600F05E
:1020E00047F8022068722068C168C943C90639D51B
:1020F000CA214162216853204862204600F074FEE4
:10210000002829D120688169184A1140816121681D
:102110008869A268E369104362691A4310438861C1
:1021200021682069086120680169A28912041143AD
:102130000161204600F07AFE00280DD121688A69ED
:10214000D200D2088A6121688A69636AA6691A4343
:10215000236A33431A438A612268FF2151620028AF
:1021600001D070BD00200121697270BDBFFF8FFBDF
:1021700010B590B0044638216846FEF72AF8104999
:10218000206888421AD101204004009000120D906E
:102190006846FFF799FB002801D0FEF78FFD09483C
:1021A000C1690122D2031143C16106484038C26BA4
:1021B00001150A43C263C06B08400E9010B010BDF9
:1021C000002800404010024070B5044621680A48CB
:1021D000C860FFF751FA7D260546F60006E0FFF7D6
:1021E0004BFA401BB04201D9032070BD2068C06883
:1021F0008006F4D5002070BD5F000100024801692F
:10220000022211430161704700E000E003490A68BF
:1022100003235B029A4302430A60704700000140B7
:10222000094910B5401E884201D9012010BD074C54
:1022300060610321081F01F0FBFA0020A061072064
:102240002061002010BD0000FFFFFF0000E000E063
:1022500002480169022291430161704700E000E0F9
:1022600030B5034620331A7F012A49D001221A775C
:102270000325CA682D02AA438D6800682A430125F8
:10228000AD02AA434D6800242A430125ED02AA436A
:102290000D682A4301252D03AA430D692A43012510
:1022A0006D03AA434D692A430125AD03AA430D6B73
:1022B0002A430F252D04AA430D8B2D042A43012503
:1022C0002D07AA43CD692A430E4DA84214D10F25EC
:1022D0002D05AA430D8D2D052A4301252D06AA4360
:1022E0000D6A2A4301256D06AA434D6AC96A2A432D
:1022F00001256D07AA430A4342641C77002030BDC4
:10230000022030BD002C014070B5040005D02546E8
:102310002035687F002802D006E0012070BD002033
:102320002877204600F016F802206877211D2068E3
:1023300000F020FE012240342272AA77EA77227050
:102340006270A270E27022716271A271E2716A77AA
:10235000002070BD08B5144A0168144891420ED19E
:102360000268012149040A43026000680022084013
:10237000009001211520FFF7F3F9152010E00C4A19
:1023800091420FD10268012189040A43026000686A
:1023900000220840009001211620FFF7E1F91620E5
:1023A000FFF7D2F908BD0000004401404010024090
:1023B00000480140014620314A7F012A01D0012016
:1023C000704702224A770168CB6801221343CB6031
:1023D00000680C49884208D09107884205D00A4914
:1023E000884202D00949884207D18168084B1940C8
:1023F000062905D0DB1F994202D001681143016014
:1024000000207047002C01400004004000400140C3
:10241000070001000168CA6852085200CA600168DA
:102420000A6A084B1A4207D10A6A9B101A4203D162
:102430000A68520852000A600121203041770020CA
:102440007047000011110000F0B587B00446142158
:102450006846FDF7BEFE134F266805230022124989
:10246000012402251807BE4207D14E6B26434E6356
:10247000496B2140059140210AE00C4FBE420FD12B
:102480004E6B26434E63496BC907C90F05918021E6
:10249000009102920195049303926946FFF738F880
:1024A00007B0F0BD00440140001002400048014068
:1024B00070B50E46040005D025462035687F0028FB
:1024C00002D006E0012070BD00202877204600F0F1
:1024D00019F802206877211D206800F04BFD206864
:1024E000016808229143016020680168314301605E
:1024F000012040342072A877E877207160716877F6
:10250000002070BD7047F8B50446002026462036EE
:102510000090307F0D4601280CD00120082730772D
:102520000C2A48D008DC002A10D0042A1ED0082A21
:1025300006D130E00220F8BD102A52D0142A60D013
:1025400001200090002030770098F8BD206800F04E
:1025500071FD2068816939438161206881690422A5
:1025600091438161206881692A6911E0206800F047
:10257000A7FD206881690122D20211438161206890
:102580008169521091438161206881692A69120230
:1025900011438161D6E7206800F0D6FD2068C1694B
:1025A0003943C1612068C16904229143C161206837
:1025B000C1692A6912E0206800F00AFE2068C1693A
:1025C0000122D2021143C1612068C269012189023E
:1025D0008A43C2612068C1692A6912021143C1613C
:1025E000B0E7206800F02EFE2068416D3943416558
:1025F0002068426D04218A4342652068416D2A6942
:1026000012E0206800F052FE2068416D0122D202E3
:10261000114341652068426D012189028A43426568
:102620002068416D2A691202114341658AE770B53D
:10263000040005D025462035687F002802D006E03A
:10264000012070BD00202877204600F016F80220F7
:102650006877211D206800F08DFC01224034227231
:10266000AA77EA7722706270A270E27022716271BA
:10267000A271E2716A77002070BD704710B5014603
:1026800080310A79012A15D001220A7124228A6038
:102690000268136814686408640014600122520719
:1026A00093430022426600680360202088600A711C
:1026B000104610BD022010BD70B50446054680349A
:1026C000207901281AD0012020712420A0602868D8
:1026D0000668026852085200026028688268072370
:1026E0005B069A430A438260284600F015FE28687C
:1026F00006602020A0600020207170BD022070BD07
:1027000070B50446054680342079012819D001208F
:1027100020712420A06028680668026852085200D0
:10272000026028688268D200D2080A438260284684
:1027300000F0F2FD286806602020A06000202071D3
:1027400070BD022070BD70B5040005D025468035EF
:10275000A868002802D006E0012070BD0020287182
:10276000204600F027F82420A86020680168490866
:1027700049000160A06A002802D0204600F0EEFD6A
:10278000204600F0DFFE0128E7D0206841680922DA
:10279000D20291434160206881682A22914381607E
:1027A00020680168012211430160204600F03CFED0
:1027B00070BD0000F0B595B0064614210EA8FDF7D7
:1027C00008FD38216846FDF704FD3349306888422A
:1027D0005FD1C0141027039000976846FFF774F884
:1027E000002801D0FEF76AFA2C48C26B01210905C6
:1027F0000A43C263C26B0A401392416B0122114328
:102800004163406B0024104013900C200E90022076
:102810000F900320119006201290052010940EA90D
:102820000007FEF775FE1F4D1D482860AF600F20A2
:10283000EC60686080276C61AC612F61B801EC616D
:1028400028622846FEF700FE002801D0FEF736FA7F
:10285000F5671348AE62144D14302860AC60EC602C
:102860006C61AC61EC612F610E202C6268602846BF
:10287000FEF7EAFD002801D0FEF720FA80208551FE
:10288000002203211D20AE62FEF76AFF1D20FEF725
:102890005BFF15B0F0BD000000800040001002405A
:1028A00008000240704C0020CC4C0020FEE78068FD
:1028B000C007C00F704780684007C00F70470268AC
:1028C00007239B059A430A430260704710B543698A
:1028D0000424214007248C40A3438A4013434361CE
:1028E00010BD0000FEB502AA01A97948FDF766FFF8
:1028F00000282ED1774C01997548E51D0A7870386B
:10290000F935754E8034202A7AD023DC012A38D05C
:10291000112A78D0122A75D0132A1AD101216A46B9
:102920000020019B5B5C1354491C401CC9B2022867
:10293000F7DB01981188C078664B8200D218FF320D
:102940000132116218225043634A183A8018FEF788
:1029500071F8FEBD212A71D0802A70D0832A6FD0F1
:10296000AB2AF6D14878BA28F3D10120FEF7BEFD94
:10297000BFF34F8F5A495948C860BFF34F8F00BF0C
:10298000FDE755481838FEF7C7F83046FEF7C4F89B
:102990000199012252024F48491CFDF701FC5148A0
:1029A0008068FDF7F4FBFDF7E9FBA16E4843A16DDC
:1029B000401881B2A06B80B20090A06C83B2A06A74
:1029C00082B245481838FEF78FF8FDF7D7FBE16E65
:1029D0004843E16D401881B2E06B80B20090E06C3A
:1029E00083B2E06A82B23046FEF77EF8286A81B28E
:1029F00039481838FEF71EF8686A81B23046A6E7F3
:102A00001FE000E00CE048782062206A0028A0D196
:102A100031481838FEF780F83046FEF77DF8FEBDE5
:102A200001216A460020019B5B5C1354491C401C39
:102A3000C9B20428F7DB00986861FEBD11E020E010
:102A400028E0491C0A684260A2654A688260A26662
:102A50008A68C260A263CA680261A2620869A0644F
:102A6000EBE7491C0A68C263E2654A680264E266F1
:102A70008A684264E263CA688264E2620869E06468
:102A8000DBE719A000680090032269461048FDF7B3
:102A90000FFFD2E74F78F8070BD02C6BE00703D07D
:102AA0000D481838FEF77CF8A00702D53046FEF72F
:102AB00077F8B807C1D56C6BE00703D00648183823
:102AC000FEF76EF8A007B8D53046FEF769F8B4E710
:102AD00060040020F0010020584C00200400FA059A
:102AE00000ED00E0002800403C803E003EB50021A3
:102AF000194800910191174A029102601205426043
:102B000081602022C2609206026104224261012497
:102B100001764476817602462032C46111704162AA
:102B2000816211732303036341631177C164FEF76C
:102B3000D9F9002801D072B6FEE70848009069462E
:102B400001940548FEF7BCF8002801D072B6FEE7F4
:102B50003EBD00000024014020000020004000B8DD
:102B600070B586B014216846FDF733FB1F48416BF2
:102B7000042631434163416B31400591426B202172
:102B80000A434263426B0A400592416B01221143A2
:102B90004163416B11400591426B02210A4342633C
:102BA000406B032408400590114800256A4631C255
:102BB00069461048FEF7ACFC69460F48009602953E
:102BC0000194FEF7A5FC0D486A4631C2052069460E
:102BD0000007FEF79DFCFF20FC306A4631C26946C3
:102BE0000748FEF795FC06B070BD000000100240DB
:102BF00040C000000008005000140050039900007D
:102C00000004005010B51A4818490160E12149023A
:102C1000416000218160C160016181610C2201621B
:102C20004261416208228262120382634166FFF7B9
:102C30008AFD002801D072B6FEE700210C48FFF79C
:102C40005FFD002801D072B6FEE700210848FFF7BB
:102C500033FD002801D072B6FEE70548FFF70EFDF0
:102C6000002801D072B6FEE710BD000000800040D1
:102C70009800002010B594B01C210DA8FDF7A9FA0A
:102C800034216846FDF7A5FA24492548002412C0DE
:102C9000046084602349C460416080210161083878
:102CA000FFF732FB002801D072B6FEE71C48FFF7A1
:102CB000BEFC002801D072B6FEE708211848FFF7D5
:102CC000F7FB002801D072B6FEE7602012940E9444
:102CD0000D900F941094119400220DA91394104894
:102CE000FFF711FC002801D072B6FEE70120009426
:102CF0004003019402940590039404940694694659
:102D00000C940748FFF7ACFA002801D072B6FEE732
:102D10000348FFF799FB14B010BD000000440140C8
:102D200058010020FFFF000030B595B01C210DA810
:102D3000FDF74FFA34216846FDF74BFA2648274D38
:102D4000002411C52C60AC60EC6025482C616860E3
:102D50002248083DFFF7D8FA002801D072B6FEE7F6
:102D60001E48FFF764FC002801D072B6FEE7082178
:102D70001A48FFF79DFB002801D072B6FEE76020DD
:102D800012940E940D900F941094119400220DA99A
:102D900013941248FFF7B7FB002801D072B6FEE784
:102DA000286881690822914381610094900201940E
:102DB0000294059003940494069469460C94074881
:102DC000FFF74EFA002801D072B6FEE70348FFF77E
:102DD0003BFB15B030BD000000480140A4010020BD
:102DE000FFFF0000FEE77047F8B5044600680025C5
:102DF000C168490618D4C16880221143C160FEF73A
:102E00003BFC27460646203708E0FEF735FC811BD1
:102E10007D20C000814201D903257D722068C068F1
:102E2000400601D4032DF0D12846F8BDF8B5124C68
:102E30000026E16880229143E160A1690546890688
:102E40002035002907DBFFF7BFF9002811D0032048
:102E5000687206460DE0A1692027B943A161FFF71A
:102E6000B3F9002802D0032068720646A0693843EF
:102E7000A0613046F8BD00000028004008B504A05D
:102E800000680090032269460248FDF711FD08BD65
:102E90003C803E006004002010B50A4900200880F4
:102EA00009490A48FDF76EFC094801680A680D23C4
:102EB0001A430A6000680168202211430160FFF78D
:102EC000DDFF10BD000000209800002060040020FD
:102ED000E04A0020704710B5FEF7D4FB10BD10B5D6
:102EE00092B038216846FDF774F9002401200E9451
:102EF0000F94109480021194FEF76EFC0A2000904B
:102F0000FF2001300390402005900120069004949A
:102F100007946846FEF7E0FE002801D072B6FEE78F
:102F200007200E900F941094002111940EA8FEF724
:102F3000CDFD002801D072B6FEE712B010BD000032
:102F400001200249C00688607047000000ED00E0E3
:102F500010B50248FDF7EBFC10BD0000584C0020F6
:102F600010B50248FDF7E3FC10BD0000404C002006
:102F700070470000F0B50268214B0124A407214DE1
:102F8000984203D0A04201D0A84203D17026B24398
:102F90004E6832431C4E1D4F98420DD0A0420BD0BC
:102FA000A84209D01A4CA04206D0B04204D0B84280
:102FB00002D0184CA04204D103242402A243CC68BE
:102FC00022438024A2434C69224302608A68C26281
:102FD0000A688262984206D0B04204D0B84202D059
:102FE0000C4A904201D109690163012141610169E3
:102FF000C90703D00169490849000161F0BD00001B
:10300000002C014000040040004001400044014009
:10301000002000400048014010B5CB06DB0E012126
:10302000046A99408C430462016A9A401143016228
:1030300010BD0000F0B5056A026A52085200026233
:1030400043688269194C1B4E224092080C6892001A
:103050001443022295438A682A43154DA84207D09B
:10306000B04205D0144FB84202D0144FB84206D136
:103070000827BA43CF681743042297433A46A84229
:1030800007D0B04205D00C4DA84202D00B4DA8424B
:1030900006D103252D02AB434D691D438B692B439C
:1030A00043608461496841630262F0BD8FFFFEFFA7
:1030B000002C014000400140004401400048014014
:1030C00070B5046A026A10239A43026243688269F7
:1030D000184D2A4003252D02AA430D682D021543E1
:1030E000202294438A6812012243134CA04208D143
:1030F0001446CA688026B443120122434024A243E6
:1031000008E00E4CA04205D00D4CA04202D00D4C60
:10311000A04208D10324A402A3434C69A4001C4389
:103120008B699B0023434360856149688163026228
:1031300070BD0000FF8FFFFE002C014000400140E9
:10314000004401400048014070B5046A026AFF2350
:1031500001339A4302624368C269184D2A409208BB
:103160000D68920015430122520294438A681202AC
:103170002243134CA04208D11446CA68C614B44373
:10318000120222430415A24308E00E4CA04205D0CF
:103190000D4CA04202D00D4CA04208D103242403C0
:1031A000A3434C6924011C438B691B0123434360E7
:1031B000C5614968C163026270BD00008FFFFEFFF8
:1031C000002C014000400140004401400048014003
:1031D00030B5046A026A01231B039A430262436802
:1031E000C269134D2A4003252D02AA430D682D0202
:1031F00015430122520394438A68120322430D4C63
:10320000A04208D00C4CA04205D00C4CA04202D0E9
:103210000B4CA04205D10124A403A3434C69A40193
:1032200023434360C56149680164026230BD000008
:10323000FF8FFFFE002C0140004001400044014090
:1032400000480140F0B5046A026A01263604B24320
:1032500002624268436D104D2B400D681D437300A0
:103260009C430B891F040D4B2743984208D00C4BFD
:10327000984205D00B4B984202D00B4B984204D198
:1032800013464A69B34312021A43426045654968CE
:1032900081650762F0BD00008FFFFEFF002C01403A
:1032A00000400140004401400048014030B5036A3D
:1032B000026A01242405A24302624268456D114C52
:1032C00025400C6824022C4301256D05AB430D8974
:1032D0002D051D430C4B984208D00C4B984205D04D
:1032E0000B4B984202D00B4B984205D101239B0413
:1032F0009A434B699B021A43426044654968C16521
:10330000056230BDFF8FFFFE002C014000400140F0
:103310000044014000480140F8B50446416E403485
:10332000002915D000688168806809014D0F0A4E98
:10333000400F3746315C083F385CC000FCF7D8FED0
:103340006085785D715DC000FCF7D2FE2085F8BD18
:1033500001206085FAE70000F43A000810B5018DFD
:10336000090707D501684A680123DB039A43836B89
:103370001A434A60018DC90707D001684A680123D2
:103380005B049A43C36A1A434A60018D890707D5D3
:1033900001684A6801231B049A43036B1A434A607D
:1033A000018D490707D501684A6801239B049A43A8
:1033B000436B1A434A60018DC90607D502689168BC
:1033C00001231B039943C36B19439160018D890647
:1033D00007D501688A6801235B039A43036C1A438B
:1033E0008A60018D490612D503685A6801210905D2
:1033F000446C8A4322435A60426C8A4207D1026875
:10340000516803235B059943836C19435160018D17
:10341000090607D501684A680123DB04C06C9A439A
:1034200002434A6010BD0000FEB505460026803507
:1034300004462E61FEF720F90190206800682027DD
:103440000007002817DA254800900022390420469A
:10345000019B00F093F900280DD0EFF310800121BB
:1034600081F3108821680A6880239A430A6080F3F8
:103470001088AF6028E020680068400727D517480B
:1034800000900121002289052046019B00F076F979
:1034900000281CD0EFF31080012181F310882168EF
:1034A0000A68FF2321339A430A6080F31088EFF300
:1034B0001080012181F3108821688A685208520027
:1034C0008A6080F31088EF602E710320FEBDAF602C
:1034D000EF60E66626672E710020FEBDFFFFFF014C
:1034E00010B5EFF31081012282F31088026813688F
:1034F000FF242134A343136081F31088EFF310817C
:10350000012282F31088026893680D4C2340936077
:1035100081F31088C16E01290BD1EFF310810122D4
:1035200082F31088026813681024A343136081F3A8
:10353000108820228C210A500021C166416710BDED
:10354000FEFFFFEFF8B50446016880682269E5696F
:103550001043626900262A4310437C4B0A687C4D65
:103560002A4002430A602068416803221203914303
:10357000E268114341602168A069994201D0226A42
:1035800010438A68734D2A4002438A602068C16AEA
:10359000626A090909011143C1626F4922686F48D3
:1035A0008A420AD140698007800F2CD001283DD083
:1035B000022828D0032825D122E069498A420AD16D
:1035C00040690C2108401ED004281CD008282BD0AC
:1035D0000C2817D114E063498A4223D062498A42F9
:1035E00020D09A420ED1416903208002014019D0B7
:1035F00001208002091A19D0091A15D0814201D17F
:10360000082000E0102001255849594FED039A4247
:103610003FD100280CD002280DD004280DD0082856
:1036200036D10EE00020EEE70220ECE70420EAE7C6
:10363000FEF7F8FA03E00D4603E0FEF707FB05008E
:103640007AD0606A4000395A28460091FCF750FD54
:10365000676879007918814269D83903814266D355
:10366000002328461946009AFCF758FD020E09026D
:103670000302780811431818002251413A460023EA
:10368000FCF74CFD032109023A4A411A914251D9F3
:103690004DE0E269AA4228D1002806D0022807D0CE
:1036A000042807D0082842D108E0FEF7BBFA03E05F
:1036B0000D4603E0FEF7CAFA05003DD0606A4000FF
:1036C000395A2846FCF714FD616840004A08801802
:1036D000FCF70EFD0146284A1039914227D8511CAB
:1036E00001400007400F084324E0002806D00228CC
:1036F00007D0042807D0082819D108E0FEF792FA6D
:1037000003E00D4603E0FEF7A1FA050014D0606A5D
:103710004000395A2846FCF7EBFC61684A088018DB
:10372000FCF7E6FC0146144A1039914201D9012602
:1037300002E080B22168C860204601214030418506
:10374000018500206067A0673046F8BD008000401A
:10375000F369FFCFFFF4FF11003801404010024031
:103760000044004000480040004C00400024F400A9
:10377000D43A0008FFFC0F00EFFF0000FFB581B056
:1037800005460E46044680350A9F32E0781C30D04C
:10379000FDF772FF0499401AB84218D8002F16D0CE
:1037A00020680168490724D5802E22D0402E20D0E1
:1037B000C169C94309070CD4082606622046FFF7F1
:1037C0008FFE2E6100202871012005B0F0BD03207E
:1037D000FBE7C069C04300050BD401202168C0028B
:1037E00008622046FFF77CFE202028610020287117
:1037F000EDE72068C1693046884305D00021039871
:103800008142C3D00020E0E70121F8E710B5054868
:10381000FCF7EAFF0348FDF762F80449024809682B
:10382000086210BD60040020FFFF00009800002027
:103830008307FF22DB0E9A408907090E9940002872
:1038400008DB830809489B001B181868904308434D
:10385000186070470007000F0838830804489B0071
:103860001B18D86990430843D861704700E400E012
:1038700000ED00E002E008C8121F08C1002AFAD1DA
:1038800070477047002001E001C1121F002AFBD1E0
:103890007047826041630021C1600A4693001B1893
:1038A0001961D9619962521C032AF7DB01604160FA
:1038B000704700008AB0FDF7EDFEFFF710FBFFF741
:1038C0004FF96348816B012529438163806B002296
:1038D0002840009011460920FDF742FF0920FDF71E
:1038E00033FF002211460A20FDF73AFF0A20FDF7B8
:1038F0002BFFFFF7FBF824216846FCF76AFC5649CA
:10390000544808600846FDF7B1FC002801D072B6A3
:10391000FEE7002400940194029403942246694631
:103920004D480494FDF70AFC002801D072B6FEE76A
:10393000102269464848FDF701FC002801D072B604
:10394000FEE7FFF75FF9FFF795F9FFF7EDF942485A
:103950004249A830846001607F21C1604461846174
:10396000FF21C46101610121890744620162FEF700
:10397000A7FB002801D072B6FEE7FFF78DFA0023FF
:103980001A4637493748FCF7F1FF364834491830B2
:10399000012300224C390190FCF7E8FF324805630F
:1039A00002214163314C0123224600212D4800941D
:1039B000FDF79AF801232246002100940198FDF7B3
:1039C00093F82B4C27482146FDF734F821460198FF
:1039D000FDF730F8224E05254C3E214F2D07FEF70E
:1039E00081FF316808680969C007C017C907C90F96
:1039F000401C084202D00198FCF799FF396808681A
:103A00000969C007C017C907C90F401C084202D086
:103A10001448FCF78CFFFDF7CDF880212846FDF710
:103A200025FE002801D0012400E000244021284682
:103A3000FDF71CFE002800D00120044301D1FEF751
:103A400007FC01218803FDF71DFFFEF7D7FBC6E742
:103A50000010024000740040840000200028004054
:103A6000A4010020404C0020F002002050C30000C0
:103A700088130000000000000000000000000000AB
:103A80000000000000000000000000000000000036
:103A90000000000001000000020000000300000020
:103AA00004000000060000000700000008000000FD
:103AB00009000000000000000000000000000000FD
:103AC00000000000010000000200000003000000F0
:103AD00004000000010002000400060008000A00C3
:103AE0000C001000200040008000000101010103D3
:103AF0000701000008040204080101011C3B000842
:103B00000000002020000000743800083C3B000842
:103B10002000002008550000843800080000000044
:103B200000000000000000000024F400010000007C
:0C3B300004000000000000000000000085
:04000005080000C12E
:00000001FF
