:020000040800F2
:1000000050100020790200080F190008F9160008A6
:100010000D1900086F040008D12A00080000000034
:10002000000000000000000000000000991A000815
:1000300001050008000000008B1A0008A51A00083E
:10004000930200089302000893020008930200083C
:10005000930200089302000893020008930200082C
:10006000930200089302000893020008710400083C
:100070009302000873040008750400089302000846
:100080007704000893020008930200089302000816
:1000900093020008930200089302000893020008EC
:1000A00093020008930200084D1B00089302000809
:1000B000930200089302000893020008FB16000850
:1000C00093020008930200089302000893020008BC
:1000D00093020008571B00089302000893020008CF
:1000E000930200088D1A000893020008531B0008B1
:1000F00093020008551B00089302000879040008C9
:1001000093020008930200084F1B000893020008A6
:10011000930200089302000893020008511B000894
:100120007B040008930200087D0400087F04000897
:10013000810400089302000893020008930200085B
:1001400093020008930200089302000811190008A6
:100150009302000893020008830400089302000839
:10016000930200089302000893020008930200081B
:100170009302000893020008000000000000000045
:1001800093020008930200089302000893020008FB
:100190009302000893020008000000009302000888
:1001A0009302000893020008000000000000000015
:1001B0009302000800000000000000009302000805
:1001C00093020008930200089302000893020008BB
:1001D000930200089302000800F002F800F03CF8D7
:1001E0000AA090E8000C82448344AAF10107DA4592
:1001F00001D100F031F8AFF2090EBAE80F0013F0A8
:10020000010F18BFFB1A43F0010318471C29000017
:100210003C290000103A24BF78C878C1FAD85207A8
:1002200024BF30C830C144BF04680C607047000070
:100230000023002400250026103A28BF78C1FBD8EF
:10024000520728BF30C148BF0B6070471FB502F08E
:1002500059FC1FBD10B510BD00F0CFF81146FFF7D7
:10026000F5FF02F046FC00F0EDF803B4FFF7F2FFF3
:1002700003BC00F0F5F80000094880470948004732
:10028000FEE7FEE7FEE7FEE7FEE7FEE7FEE7FEE746
:10029000FEE7FEE704480549054A064B70470000A3
:1002A0003D1B0008D9010008500800205010002014
:1002B000500C0020500C002053EA020C00F0698022
:1002C0002DE9F04B4FF00006002B1FBFB3FA83F56A
:1002D00003FA05F424FA05F65E4012BF1643B2FA9B
:1002E00082F502FA05F4C5F120051EBF22FA05FCCD
:1002F00044EA0C04203556EA044C4FEA144418BF73
:10030000641C4FF000084FF00009904271EB030CA1
:1003100039D3002919BFB1FA81F701FA07F6B0FA0B
:1003200080F700FA07F6C7F120071EBF20FA07FC86
:1003300046EA0C062037B6FBF4FCA7EB0507103F96
:1003400007F01F0BCBF120060CFA0BFB2CFA06F67C
:1003500044BFB3460026202FA4BF5E464FF0000BDB
:100360005BEA060C08BF4FF0010B19EB0B09ABFB66
:10037000027C48EB0608C01B06FB02CC0BFB03CC3F
:1003800071EB0C01C1E70B46024641464846BDE809
:10039000F08B13B54FF000004FF00001AFF3008079
:1003A000BDE81C4070474FF0000200B5134694466C
:1003B0009646203922BFA0E80C50A0E80C50B1F1BD
:1003C0002001BFF4F7AF090728BFA0E80C5048BFD1
:1003D0000CC05DF804EB890028BF40F8042B08BF6F
:1003E000704748BF20F8022B11F0804F18BF00F86B
:1003F000012B7047704770477047754600F02CF826
:10040000AE4605006946534620F00700854618B001
:1004100020B5FFF73FFFBDE820404FF000064FF04A
:1004200000074FF000084FF0000B21F00701AC4629
:10043000ACE8C009ACE8C009ACE8C009ACE8C00948
:100440008D46704710B50446AFF300802046BDE8E6
:100450001040FFF70ABF000000487047F007002077
:1004600001491820ABBEFEE7260002007047FEE7F8
:1004700070477047704770477047704770477047C4
:100480007047704701681823CAB2103AB2FBF3F202
:10049000054B6FF30901032A9B5CC36500D9091D55
:1004A00081650846704700000E2B000810B5014614
:1004B00000208B698A6A4FF0C07453B1B3F5005FB6
:1004C00015D072B1012A0CD0022A0AD0032A09D110
:1004D00004E01AB1012A06D0022A03D1C96AC9016F
:1004E00000D5012010BDC96AA142FAD010BD002A72
:1004F000F7D0012AF2D0022AF3D0032AF3D010BD9C
:10050000704772B6FEE700002DE9F041044600F0A6
:1005100059F906465CB1022084F83500002584F8BC
:1005200034502068016821F0010101600DE00120D4
:10053000BDE8F08100F046F9801B052805D9202090
:100540006065032084F83500F2E720680068C00782
:10055000F0D12268116820480140D4E90103184312
:10056000D4E903363343184363691843A369184336
:10057000E3691843236A18430843616A042903D1D5
:10058000D4E90B1319430843106020684069666A78
:1005900020F0070130460E43012704280CD1A06A41
:1005A0000643E06A40B12046FFF780FF20B14020BB
:1005B000606584F83570BAE7206846612046FFF729
:1005C00061FF94F85C203F2191408160656584F86B
:1005D00035700020ACE700003F8010E02DE9F84FB7
:1005E000DFF8ACA10022012403254FF00F090AF126
:1005F000040BAAF1040E00BF0B6804FA02F63340A4
:10060000B3426ED10F7907F00307012F01D0022FFB
:1006100016D187684FEA420805FA08FC27EA0C075A
:10062000D1F80CC00CFA08FC4CEA070CC0F808C062
:100630004768B7430E79C6F3001696403E434660BE
:100640000E79F643B6070AD0C6684FEA420C05FA9F
:100650000CF7BE438F6807FA0CF73743C7600E7973
:1006600006F00306022E10D1D60800EB8608D8F853
:10067000206057074FEAD76C09FA0CF7BE430F69A1
:1006800007FA0CF73743C8F8207006684FEA420CA7
:1006900005FA0CF7BE430F7907F0030707FA0CF7CA
:1006A000374307604E6816F4403F6BD0394E3768C9
:1006B00047F480473760366822F0030706F4804627
:1006C0000096354E07EB060CDCF8086897074FEAF2
:1006D000177809FA08F7BE43304FB84202D1002715
:1006E0001FE04FE02E4FB84201D1012719E02D4FF6
:1006F000B84201D1022714E02B4FB84201D10327A1
:100700000FE02A4FB84201D104270AE0284FB8422F
:1007100001D1052705E0274FB84201D1062700E0A7
:10072000072707FA08F73743CCF80878DAF80060AB
:100730005746D1F804C09E435FEACC2C00D51E4337
:100740003E60DBF800605F46D1F804C09E435FEA7C
:100750008C2C00D51E433E60DEF800607746D1F851
:1007600004C09E435FEA8C3C00D51E433E60084FA8
:10077000083F3E68D1F804C09E435FEACC3C00D5F8
:100780001E433E60521C102AFFF436AFBDE8F88FBE
:10079000083C014044380240003001400000024063
:1007A0000004024000080240000C02400010024019
:1007B00000140240001802400AB181617047090428
:1007C000FBE700000148806870470000000000203F
:1007D000024881680278114481607047000000205F
:1007E000094810B5016841F400710160016841F4E5
:1007F00080610160032000F081F8002000F006F81D
:1008000000F024F8002010BD003C024070B50D4DF2
:1008100004464FF47A712878B1FBF0F00A49096870
:10082000B1FBF0F000F054FF48B9102C07D20022C1
:100830002146501E00F042F800206C6070BD01207F
:1008400070BD0000000000200C000020134808B517
:10085000016841F480410160006800F4804000902C
:100860000E48001F016841F080510160006800F0EF
:1008700080500090042000F041F800220721501F12
:1008800000F01CF800220721101F00F017F80022CA
:100890000721BDE80840901E00F010B8443802401F
:1008A000002809DB00F01F0201219140400980006F
:1008B00000F1E020C0F8001170470000F0B40E4BCA
:1008C0001B680C46C3F30223C3F10705042D00D9AE
:1008D0000425191D072901D2002300E0DB1E012693
:1008E00006FA05F1491E214099409E40761E1640A9
:1008F0003143F0BC02F0EDB80CED00E0064900F029
:10090000070208684FF6FF03184040EA0220034A36
:1009100010430860704700000CED00E00000FA058D
:100920007047D0F8E00401F08DBA01EBC10200EB92
:100930008202D0F8E004126A01F0E2B901EBC102D0
:1009400000EB8202D0F8E004D2F8602201F033BA62
:10095000D0F8E00401F078BA0A0601F00F0101EBCB
:10096000C10100EB810101D5143101E001F51571E0
:10097000006801F04BBF70B5044601F00F0022790A
:10098000904201D9012070BD0B0601F00F0101EB6F
:10099000C10104EB81014FF001024FF0000502D5C7
:1009A0004A75143103E081F8555201F515718D70C7
:1009B000087094F89404012808D084F894242068DE
:1009C00001F0B4FD84F89454002070BD022070BD85
:1009D0002DE9F04104460F0601F00F0000EBC001C5
:1009E00004EB81014FF001064FF0000502D54E7572
:1009F000143103E081F8555201F5157108708A60D1
:100A00000B714A7802B14883022B00D14D7194F8E2
:100A10009404012809D084F89464206801F00CFD46
:100A2000284684F89454BDE8F0810220FBE710B515
:100A300001F00F0404EBC40100EB8101C1E998232C
:100A40000023C1F8683281F8553281F85442837925
:100A500001F51571012B00D1CA618279006801F09E
:100A6000BDFD002010BD70B504460D4601F00F001D
:100A70002179884201D9012070BD29064FF0000676
:100A80004FF0010206D500EBC00104EB81014A756D
:100A9000143107E005EBC50104EB810181F85562D3
:100AA00001F515718A70087094F89404012807D034
:100AB00084F89424206801F065FD280702D007E03F
:100AC000022070BDA17904F29C42206801F002FD71
:100AD00084F89464002070BD10B501F00F0404EB9D
:100AE000C40100EB8101C1E9082300238B620123CB
:100AF0004B7501F8144F8379012B00D1CA618279BB
:100B0000006801F06BFD002010BD00002DE9FC5FC6
:100B100005680446284601F0F3FE00287DD12068D0
:100B200001F01AFF002878D0D5F80808C0F30D208E
:100B3000C4F8D404206801F00FFF800704D52068B2
:100B4000416901F002014161206801F005FFC10621
:100B500004F29C40009034D52068816921F0100196
:100B600081612F6A07F00F0000EBC00004EB8006E4
:100B7000C7F3434006F51576022802D0062811D0A7
:100B80001AE047F6F070074216D0C7F30A1217466C
:100B90002846F16801F0E4FEF0683844F0607069BE
:100BA000384408E008222846009901F0D9FE71690E
:100BB000C7F30A10084470612068816941F0100190
:100BC0008161206801F0C8FE00034FF0080B4FF070
:100BD000000A4FF001097CD50026206801F09BFE39
:100BE000074674E0F80770D0F1B2206801F0ACFE5F
:100BF0008046C00707D005EB4611C1F8089B314677
:100C0000204600F08BFE5FEA087024D505EB461104
:100C1000C1F808BB2068016C00E041E200EB46101F
:100C20000191D0F8083BFE4A914205D9190403D539
:100C30004FF40041C0F8081B204600F069FAF8495B
:100C40000198884207D9A079012804D120680121A0
:100C5000009A01F03FFC5FEAC86004D505EB46113D
:100C60001020C1F8080B5FEA88701DD5686900067E
:100C700005D5D5F8040840F48061C5F8041806EBE2
:100C8000C60004EB800090F8571200F5157001299A
:100C900005D180F803A0F1B2204600F007FA05EB79
:100CA00046110220C1F8080B5FEA886004D505EB05
:100CB00046102021C0F8081B5FEA884005D505EBE7
:100CC00046104FF40051C0F8081B7F08761C002F17
:100CD00088D1206801F040FE40036ED5206801F005
:100CE00013FE0746002666E0F80762D0F1B22068DE
:100CF00001F018FE8046C00723D006F00F0209FA63
:100D000002F0D5F834288243C5F8342805EB4610A4
:100D1000C0F80899A07901280FD106EBC60004EBB2
:100D20008000D0E907211144016236B9606A20B918
:100D300020680121009A01F0CDFBF1B22046FFF7B7
:100D4000F4FD5FEA087003D505EB4611C1F808B958
:100D50005FEAC86004D505EB46111020C1F8080908
:100D60005FEA486004D505EB46104021C0F8081939
:100D70005FEA887016D53146284601F096FD06EBED
:100D8000C60004EB8000C17D1430012905D180F834
:100D900003A0F1B2204600F085F905EB46110220D0
:100DA000C1F808095FEA086003D53146204600F023
:100DB0001BFE7F08761C002F96D1206801F0CCFD29
:100DC000002811DAD5F8040820F00101C5F804184C
:100DD00094F8CC0401283BD0204600F07EF920682E
:100DE000416901F000414161206801F0B5FD000555
:100DF0000BD5D5F80808C00702D0204600F090F9BE
:100E00002068416901F400614161206801F0A4FD9E
:100E100000010AD52068416901F00061416194F840
:100E2000CC04E0B1204600F07BF9206801F094FD8D
:100E3000C00473D5D5F8040820F00100C5F80408F3
:100E40001021206801F031FD00214FF67F322CE0A7
:100E500084F8CCA400212046FFF762FDBFE784F8A8
:100E6000CC942068406D0121C0F38300C4F8D00405
:100E70002046FFF755FDD8E705EB4110C0F80829DB
:100E8000D0F8003923F40013C0F80039C0F8082B5B
:100E9000D0F8003B23F40013C0F8003BD0F8003B2F
:100EA00043F00063C0F8003B491C20798842E3D836
:100EB000D5F81C0840F00111C5F81C18E07B00288B
:100EC00028460DD0D0F8840840F00B01C5F88418EE
:100ED000D5F8440840F00B012846C5F844180DE049
:100EE000D0F8140842F22B010843C5F81408D5F8CD
:100EF000100840F00B012846C5F81018D0F800087B
:100F000020F4FE61C5F80018A1792068009A01F06C
:100F1000E1FA2068416901F480514161206801F0E3
:100F20001BFD800415D5206801F0C6FA206801F089
:100F3000DAFCE07100F0A6F90146E279206801F0E0
:100F40003FFD204600F0B6F82068416901F40051E9
:100F50004161206801F000FD000707D5204600F040
:100F6000C0F82068416901F008014161206801F082
:100F7000F3FC000616D5A86920F08001A9610126BE
:100F80000DE000BF06EBC60004EB800090F85702AE
:100F9000012803D1F1B22046FFF7DEFC761C207950
:100FA000B042EFD8206801F0D7FCC0021FD501265F
:100FB0004F4614E005EB4610D0F8000906EBC601D9
:100FC00004EB81010A7E012A08D1002806DACF75D8
:100FD000F0B240F080012046FFF7BEFC761C20797D
:100FE000B042E7D82068416901F48011416120686E
:100FF00001F0B2FC800236D501204B462BE000BF49
:1010000005EB4011D1F8001B00EBC00204EB82029B
:1010100092F85862012E1DD100291BDA02E000006F
:101020000A30544F94F8D46401F4803106F001067C
:10103000B1420FD182F85732A96941F08002AA610A
:101040006969090606D4D5F8040840F40070C5F8AB
:10105000040803E0401C21798142D1D8206841690D
:1010600001F400114161206801F076FC400007D5D1
:101070002046FFF756FC2068416901F0804141613C
:10108000206801F069FC40070AD5206845686807B8
:1010900002D52046FFF75CFC206841682943416087
:1010A000BDE8FC9FD0F8E00400F0ECBED0F8E0040E
:1010B00000F0FCBE70B50446C0790125022801D0BD
:1010C000FFF71FFA2946D4F8E00400F05DFFD4F8DA
:1010D000E004BDE8704000F012BFD0F8E00400F07A
:1010E0003CBFD0F8E00400F042BF10B5044690F8D1
:1010F000940401280AD0012084F8940461742068C3
:1011000001F04DFC002084F8940410BD022010BDB5
:10111000D0F8E02400F29C41104600F041BF0000EE
:1011200010B50446D0F8E00400F073FF2068D0F852
:10113000001E41F00101C0F8001EE07A002804D032
:101140000248016841F00601016010BD10ED00E0A9
:101150002DE9F0470E46050065D0DFF81481D8F878
:101160000000F7B200F00700B04207D288F8007024
:10117000D8F8000000F00700B04254D128683D4C78
:10118000810712D5400703D5206840F4E050206065
:101190002878000703D5206840F46040206020686C
:1011A000A96820F0F000084320602878C0072DD0FF
:1011B000304968680839012812D0022813D0032862
:1011C00011D00968890700292DDA216821F003016F
:1011D00001432160FFF7F6FA814641F2883A0EE0BA
:1011E00009688903EFE709688901ECE7FFF7EAFA84
:1011F000A0EB0901514502D90320BDE8F087206822
:10120000696800F00C00B0EB810FEFD1D8F8001046
:10121000404601F00701B14207D90770006800F0AD
:101220000700B04201D00120E7E72878400705D544
:101230002068E96820F4E05008432060287800071F
:1012400006D52068296920F4604040EAC10020608A
:1012500000F01EF82168084AC1F30311515CC84030
:101260000649086006480068FFF7D0FA0020C4E786
:10127000003C024008380240162B00080C000020F9
:101280000400002001480068704700000C000020A6
:10129000154810B5006810F00C02144813D014491A
:1012A000042A0FD0082A0ED10F4C241F226823686D
:1012B00002F03F025B0207D52068C0F38810A0FB54
:1012C000010106E0084610BD2168C1F38811A1FBA9
:1012D00000010023FEF7F0FF2168C1F30141491C22
:1012E0004900B0FBF1F010BD083802400024F400C2
:1012F00000366E012DE9F84F04006ED02078DFF83B
:101300006093C007A9F104054AD009F104000168FF
:10131000C1F38101012908D00068C0F381000228CF
:101320000AD1D9F80000400206D52868800337D5D5
:1013300060680028E1D033E06068B0F5803F10D0ED
:10134000B0F5A02F286810D020F4803028602868DD
:1013500020F4802028606068A8B1FFF733FA0646C1
:101360000DE0286840F48030F4E740F480202860E5
:10137000F7E700BFFFF726FA801B642873D82868B8
:101380008003F7D50CE0FFF71DFA064605E000BF25
:10139000FFF718FA801B6428F0D828688003F7D478
:1013A0002078DFF8C08280074FF0000A3ED5AC48B5
:1013B000001D016811F00C0F08D00068C0F3810017
:1013C00002280BD1D9F80000400207D42868800712
:1013D00016D5E068012800D112E03CE1E068B8B120
:1013E0000120C8F80000FFF7EDF9064605E000BF50
:1013F000FFF7E8F9801B0228C0D828688007F7D5D6
:101400002868216920F0F80040EAC10028600DE05A
:10141000C8F800A0FFF7D6F9064604E0FFF7D2F9B6
:10142000801B02281FD828688007F7D4207800077F
:1014300022D58B4E8C486169703671B101210160F3
:10144000FFF7C0F9074604E0FFF7BCF9C01B02280C
:1014500009D830688007F7D50EE0C0F800A0FFF784
:10146000B1F9074605E082E0FFF7ACF9C01B02289E
:101470007DD830688007F7D42078400768D5DFF83A
:10148000E0B100270BF13C0BDBF80000C0000BD4EF
:10149000DBF8001041F08051CBF80010DBF80000C1
:1014A000012700F080500090704E3068C00510D4C5
:1014B000306840F480703060FFF784F9009005E0F8
:1014C000FFF780F90099401A022850D83068C0050B
:1014D000F6D5634EA0686C3601280FD00528306819
:1014E00010D020F001003060306820F0040030603F
:1014F000A068B8B1FFF766F900900FE0306840F0DF
:101500000100F4E740F004003060F7E7FFF75AF914
:101510000099411A41F28830814268D830688007CA
:10152000F4D50EE0FFF74EF9009007E0FFF74AF917
:101530000099411A41F28830814258D830688007BA
:10154000F4D42FB1DBF8001021F08051CBF800105B
:10155000A069D8B34249091D0968C1F38101022974
:101560004CD00228504607D0C8F8600000E03EE0AA
:10157000FFF728F904463DE04746C8F86000FFF74A
:1015800021F9064605E000BFFFF71CF9801B022881
:101590002DD828688001F7D4F4E907010843E168F1
:1015A000334A490802EB0141A26841EA821108432B
:1015B000217C40EA0160217D40EA0171C9F80010F8
:1015C00001203866FFF7FEF8044606E045E000BF5C
:1015D000FFF7F8F8001B022809D828688001F7D522
:1015E0003BE000BFFFF7EEF8001B022802D9032002
:1015F000BDE8F88F28688001F4D42EE00128F7D0E8
:10160000D9F80000E26900F48001914223D1226AF6
:1016100000F03F0191421ED147F6C071626A01405D
:10162000B1EB821F17D1A26A4FF0FF3300F44031B3
:1016300003EB5202B1EB024F0DD194F82C2000F0D5
:101640007061B1EB026F06D194F8301000F0E04009
:10165000B0EB017F01D00120CAE70020C8E70000FD
:101660000438024000004742800E474200700040AC
:101670000000FFFF7047704710B5144904464FF44F
:101680000030086020688168C9040BD5C168C905AD
:1016900008D5C16801F0800161F4C071C1602046C5
:1016A000FFF7E9FF2068816889040BD5C1688905C7
:1016B00008D5C16801F0800161F42071C160204645
:1016C000FFF7D8FF0120607710BD0000143C0140F7
:1016D00010B5401EB0F1807F01D3012010BD4FF046
:1016E000E02460610F21601701F0F3F90020A06190
:1016F00007202061002010BDFEE770473F4808B575
:101700000268002142F400120260026802F4001232
:101710000092026842F4800202600068384A00F4D5
:10172000800000903748C0E900218022826092004A
:10173000C26052000261920042619200C0E906213B
:101740000422C0E908120322C0E90A210163FEF75E
:10175000DBFE08B172B6FEE7002204210B20FFF782
:10176000ADF80B20FFF79CF8002211460D20FFF783
:10177000A5F80D20FFF794F8002204210E20FFF7B2
:101780009DF80E20FFF78CF8002206211020FFF7AD
:1017900095F81020FFF784F8012202212F20FFF78F
:1017A0008DF82F20FFF77CF8002204213820FFF766
:1017B00085F83820FFF774F8012204213A20FFF75A
:1017C0007DF83A20FFF76CF8012211463B20FFF725
:1017D00075F83B20FFF764F8012205213C20FFF754
:1017E0006DF83C20FFF75CF8002205214620FFF74A
:1017F00065F8BDE808404620FFF752B8303802408F
:1018000028640240340000202DE9F04387B0142101
:101810006846FEF7C8FD39480024016841F004011C
:101820000160016801F004010591016841F0800147
:101830000160016801F080010591016841F001013A
:101840000160016801F001010591016841F00201A8
:10185000016000682A4E00F002004FF460450590D8
:10186000002229463046FEF7A7FFDFF898900022B5
:101870004FF482714846FEF79FFFDFF88C80B71463
:10188000002239464046FEF797FF00950125CDE935
:101890000154694630460394FEF7A0FE0420CDE9CA
:1018A00000050326CDE9025669464846FEF796FE36
:1018B00048F21060CDE90006694602944846FEF7FA
:1018C0008DFE0720CDE90006694602944046FEF7EA
:1018D00085FE0097CDE90154694640460394FEF722
:1018E0007DFE28020090CDE90154694648460394E4
:1018F000FEF774FE07B0BDE8F08300003038024008
:10190000000802400000024000040240FEE7FEE73B
:101910000148FFF7FBB800000C0300202DE9F0415F
:1019200003680D4604461E6C03EB4511D1F8080B05
:1019300094F806E04FF400474FF0200C04F29C426C
:10194000BEF1010F09D0DFF898E0764539D10204E5
:1019500032D500BFC1F8087B3FE0224B5FEA007E32
:1019600004D59E4239D90004F4D436E05FEA806E93
:1019700002D5C1F808CB30E010F0280F2DD19E42DF
:1019800001D90004E6D405EBC50004EB8000D1F8D2
:10199000101BD0F87432C1F31201591AC0F8681242
:1019A00000F51570ADB903691BB1C2681144C1607F
:1019B0000FE0012120680AE080060AD5C1F808CBB3
:1019C00007E035B9D4F8640218B90021184600F0D0
:1019D00081FDE9B22046FEF7B1FF0020BDE8F081AD
:1019E0000A31544F0A30544F2DE9F84F0E4601EB9F
:1019F000C60100EB810481460568D4E9091014345E
:101A0000884202D90120BDE8F88F081AA1688142F6
:101A100000D20846C01C870805EB46181BE000BF33
:101A2000A0EB010AA068504500D282460AF10300EB
:101A3000870899F8060000901FFA8AF3F2B2284648
:101A4000E16801F031F8E16801EB0A00E0606169EA
:101A500001EB0A006061D8F8180980B2B84205D3DA
:101A6000D4E90401814201D20028D9D1D4E904018A
:101A7000884208D806F00F0101208840D5F83418B4
:101A80008143C5F834180020BDE770470148FFF7CF
:101A9000F3BD00001400002070470178407841EA4F
:101AA00000207047FEF794BE30B593B034216846ED
:101AB000FEF779FC14210DA8FEF775FC1D480025E2
:101AC000016841F080510160006800F08050129080
:101AD0001948016841F4404101600068022400F4A3
:101AE0004040129001200090000401908001CDE957
:101AF00006400C2008906020CDE909040420CDE9BF
:101B00000B046846FFF7F6FB08B172B6FEE70DA9B5
:101B10000F2081E831004FF48050CDE910050321FA
:101B20000DA8FFF715FB002801D072B6FEE713B031
:101B300030BD00004038024000700040024801689B
:101B400041F470010160704788ED00E07047704714
:101B5000704770477047704710B5D0F8B82200241E
:101B60005268904700B10324204610BD0020704702
:101B700000207047134610B50A46002100F0B6F960
:101B8000002010BD134610B50A46002100F04EFAA1
:101B9000002010BD10B50446802100F031FA204627
:101BA000BDE81040002100F02BBA10B50521C0F8A7
:101BB000941200231A46194600F098F9002010BD2F
:101BC00010B50223C0F8943282611346C2610A46FE
:101BD000002100F02BFA002010BD10B50421C0F840
:101BE000941200231A46194600F020FA002010BD76
:101BF000F8B504460020ADF8000048880D46010AFB
:101C000008295FD2DFE801F05E0409175E5E3C45FB
:101C1000D4F8B412207C0A6819E0207C022600283F
:101C2000D4F8B80205D0C16A6846884701464670B4
:101C300039E0816AF8E7C0B2062843D2DFE800F055
:101C4000030A1014181CD4F8B402426805E069466F
:101C500090471CE0D4F8B402826892B3207CF6E787
:101C6000D4F8B402C268F8E7D4F8B4020269F4E721
:101C7000D4F8B4024269F0E7D4F8B4028269ECE720
:101C8000207CF0B9D4F8B802416B68468847014619
:101C900009E0207CA8B9D4F8B802016B68468847EF
:101CA000014607204870EA888AB1BDF8000040B1BB
:101CB000824200D90246ADF800202046FFF780FF9F
:101CC000F8BDFFE729462046FFF764FFF8E7204606
:101CD000FFF783FFF4E701004FF0000004D0012973
:101CE00001D0022901D0032070470120704710B5B0
:101CF000D0F8C802FEF73FFEBDE81040FFF7EBBF8B
:101D00002DE9F04117460446002521B194F89C02C4
:101D1000032842D04CE0D4F8941204F114000229B4
:101D200035D1D0E902639E4206D9F21A8260394663
:101D30002046FFF727FF0FE0B34214D140689842D6
:101D400011D3D4F8981288420DD2002211462046B1
:101D5000FFF718FFC4F8985200231A461946204688
:101D600000F0C4F813E094F89C02032808D1D4F8DA
:101D7000B802C16821B1C4F8D452C168204688476E
:101D80008021204600F03CF92046FFF70EFF94F832
:101D9000A00268B184F8A0520AE0D4F8B8024269FF
:101DA00032B1C4F8D452426920469047002800D18D
:101DB0000020BDE8F08170B513460446002221B131
:101DC00094F89C02032830D03AE0D4F8941204F539
:101DD000AA70032934D1D0E902518D420AD96A1A76
:101DE00082600846824200D3024619462046FFF729
:101DF000C1FE25E094F8AA0210F01F0003D00128CC
:101E000002D0022800D0002294F89C02032808D1B6
:101E1000D4F8B802016921B1C4F8D422016920467E
:101E200088472046FFF7D9FE0AE0D4F8B802836954
:101E300033B1C4F8D422826920469047002800D1EB
:101E4000002070BD0020704710B50024012180F8EB
:101E50009C12D0F8B82222B152680179904700B1A3
:101E60000324204610BD0A0601F07F01D0F8C80205
:101E700001EBC10100EB810001D5807D704790F836
:101E80005602704710B5D0F8D42200EB8202D2F887
:101E9000B82222B190F89C32032B02D004E0032038
:101EA00010BD126A02B19047002010BD10B5D0F8E5
:101EB000D42200EB8202D2F8B82222B190F89C32F0
:101EC000032B02D004E0032010BD526A02B19047F8
:101ED000002010BD10B51C461346D0F8C80222469B
:101EE000FEF776FDBDE81040FFF7F5BE10B5D0F85F
:101EF000C802FEF79CFDBDE81040FFF7ECBE2DE9DF
:101F0000F04100260125044680F89C52C4F89462F2
:101F10006660C4F8A46280F8A062D0F8B80230B15C
:101F2000426822B100212046904700B103260022DA
:101F3000402311462046FFF7CDFF4027A4F8645107
:101F40003B46002280212046C4F86071FFF7C2FFA3
:101F5000A58430462762BDE8F08190F89C120429E0
:101F600003D190F89D1280F89C120020704710B5A4
:101F700090F89C12032905D1D0F8B81211B1C969A3
:101F800001B18847002010BD01740020704710B5D2
:101F9000D0F8C802FFF7A9F8BDE81040FFF79BBED4
:101FA00070B5044600F2AA20054600F048F801206A
:101FB000C4F89402B4F8B002C4F8980294F8AA02E3
:101FC00010F01F010AD001290ED0022912D000F012
:101FD00080012046BDE8704000F012B82946204636
:101FE000BDE8704000F0A8B829462046BDE8704022
:101FF00000F0E8B929462046BDE8704000F032B94B
:1020000010B5D0F8C802FEF72EFDBDE81040FFF76E
:1020100062BE90F89C12042903D090F89C1280F8BC
:102020009D12042180F89C120020704710B5D0F852
:10203000C802FEF751FDBDE81040FFF74CBE70B579
:10204000054611F8010B2870087868704C1C204672
:10205000FFF723FD6880A41C2046FFF71EFDA88023
:10206000A01CFFF71AFDE88070BD02460020D2F8E0
:10207000B832002B02D01B6810461847704700008A
:102080002DE9F04188462B4E8978002504463170B1
:10209000012906D941462046FFF77CFD0320BDE813
:1020A000F08194F89C02022702280CD003281DD04E
:1020B00041462046FFF76EFD31782046FFF74CFD84
:1020C00003252846EBE789B320466160FFF7CDFF83
:1020D000050004D041462046FFF75CFD1DE0204688
:1020E000FFF77BFD032084F89C02EAE7C1B160683A
:1020F00088421BD0C1B22046FFF72EFD3178204622
:102100006160FFF7B2FF050010D041462046FFF79F
:1021100041FD21792046FFF71FFD84F89C72D0E72E
:1021200084F89C7220466160FFF716FD2046FFF799
:1021300054FDC6E7100000202DE9F0410A78002583
:1021400012F060020CD0202A01D0402A7DD1D0F8B4
:10215000D42200EB8202D2F8B8229268904731E094
:102160004B78002201260A2B6FD2DFE803F041668C
:102170006E586E08056E2D29FFF73AFD67E004469C
:102180008888D8B9C888C8B94888802816D200F08D
:102190007F0794F89C02032810D084F89E72394679
:1021A0002046FFF7F4FE2046FFF717FD1FB102207F
:1021B00084F89C024BE084F89C6248E0204644E0AE
:1021C000FFF75EFF054642E0CB88012B3DD190F83A
:1021D0009C32012B04D0022B02D0032B35D104E01A
:1021E0008260012200F1080116E00122011D13E0C6
:1021F00090F89C22012A03D0022A01D0032A24D17C
:10220000CA88022A21D1C660D0F8A41209B10321DC
:10221000C160022200F10C01FFF7D2FC17E04A88EE
:10222000012A02D0022A03D00FE0C0F8A46216E00F
:102230008988090A80F8A01211E090F89C32012BDD
:1022400008D0022B06D0032B04D0FFF7A3FC2846AE
:10225000BDE8F08149880129F9D1C0F8A422FFF72F
:10226000BCFCF4E72DE9F041054608780C790E46F0
:102270004FF0000810F060000BD0202801D040285B
:102280006AD121462846FFF771FCFF2800D0D8B359
:1022900095E07078C8B3012824D003285CD195F864
:1022A0009C02022802D0032856D10CE0002C53D007
:1022B000802C51D021462846FFF7A2FE80212846D7
:1022C000FFF79EFE7BE0708840B93CB1802C05D0C2
:1022D000C88818B921462846FFF792FE2846FFF71E
:1022E0007CFC6CE095F89C020228DFD0032863D1C7
:1022F000708880BB600603D021462846FFF7F7FCB4
:102300002846FFF76AFCBCE700E00AE0C5F8D40203
:10231000D5F8B8028268F2B1314628469047804627
:102320004DE095F89C020027022802D0032843D1F3
:1023300013E00CB1802C3FD1200604F07F0000EBAD
:10234000800005EB800101D5143101E001F5AA718F
:1023500002220F602CE032E02EE0200604F00F0095
:1023600000EB800005EB800009D5808C20B304F0E1
:102370007F0000EB800005EB800614360AE0B0F821
:102380006401C8B104F07F0000EB800005EB80061B
:1023900006F5AA764CB1802C07D021462846FFF7D7
:1023A00062FD10B10120306000E03760022231464A
:1023B0002846FFF705FC02E02846FFF7EBFB404606
:1023C000BDE8F08170B50546087800240E4610F08F
:1023D000600003D0202801D0402827D195F89C0226
:1023E000012803D0022801D003281FD1B088C1B230
:1023F00001291AD8C1B22846FFF7BAFBFF280CD032
:1024000058B9D5F8B8128A683AB1C5F8D4028A68C2
:10241000314628469047044600E00324F0882043D4
:1024200007D12846FFF7D9FB03E031462846FFF7DE
:10243000B1FB204670BD000070B50A78012302F0A0
:102440000F054E78AB401B4CD0F81C58012E17D00E
:1024500045EA0343C0F81C3800EB4210D0F8002BCB
:1024600012040BD4D0F8002B0B890979C3F30A03AB
:102470001A4344EA81410A43C0F8002B002070BD92
:102480009BB21D43C0F81C5800EB4210D0F8003935
:102490001B04F3D4D0F800390D890979C5F30A0576
:1024A00089042B4341EA82510B432343C0F800398E
:1024B000E4E7000000800010D0F800196FF30A0173
:1024C000C0F80019D0F8041841F48071C0F804185D
:1024D0000020704710B5036C134CA34203D9D0F809
:1024E000003B002B1EDB0023C0F8103BD0F8103B54
:1024F00043F40023C0F8103BD0F8103B43F018031E
:10250000C0F8103BD0F8103B43F0C043C0F8103B7C
:10251000012907D1C0F8142BD0F8001B41F080210D
:10252000C0F8001B002010BD0A30544F4A780B78C9
:10253000012A00EB43100BD0D0F8002B22F400123C
:10254000C0F8002B0979032914D0022912D017E012
:10255000D0F8002922F40012C0F8002909790329D3
:1025600001D002290CD1D0F8001941F08051C0F8F7
:10257000001905E0D0F8001B41F08051C0F8001BA5
:10258000002070470A784B78D1B200EB4110012B44
:1025900012D0D0F8001B002906DB2AB1D0F8001BAE
:1025A00021F08041C0F8001BD0F8001B41F400115D
:1025B000C0F8001B00207047D0F80019002906DB86
:1025C0002AB1D0F8001921F08041C0F80019D0F8E4
:1025D000001941F40011C0F80019EBE7F8B50C78C8
:1025E0004F78894DE3B26FF0604600EB4313012F43
:1025F00029D0D3F8107B6FF31207C3F8107BD3F800
:10260000107B2F40C3F8107B002C0C697DD0002C70
:102610007CD08D682C44641EB4FBF5F4A4B26543F1
:102620000D62D3F8105B06EAC4442543C3F8105B7F
:10263000D3F8104B0D6AC5F312052C43C3F8104BA9
:10264000012A7DD0C7E00F6927B3D3F810796FF363
:102650001207C3F81079D3F810792F40C3F8107916
:1026600044B30F698D682F447F1EB7FBF5F506EA6A
:10267000C545D3F810693543C3F81059D3F810593C
:102680000E69C6F312063543C3F810590D79012DB2
:102690001CD027E0D3F810692E40C3F81069D3F896
:1026A000105945F40025C3F81059D3F810596FF3A9
:1026B000120515E00E698D68AE4200D90D61D0F8A3
:1026C000105945F40026C0F81069D7E7D3F810591F
:1026D00025F0C045C3F81059D3F8105945F00055FE
:1026E000C3F81059012A1AD000EB4413D3F800495B
:1026F00044F00444C3F800490C79012C32D00A6933
:102700007AB3D0F83428097801E040E052E001F0D3
:102710000F03012199400A43C0F8342871E0CA69C7
:102720001AB100EB4413C3F814290979012910D117
:10273000D0F80818C90500EB4411D1F8002900E0D1
:1027400045E002D442F0005201E042F08052C1F86C
:10275000002900EB4410D0F8001941F00441C0F802
:1027600000194EE0D0F80848E405D3F8004902D437
:1027700044F0005401E044F08054C3F80049009252
:102780000A8A93B20A78C96800F08EF939E00CB170
:102790008C680C618C680C62D0F8105BC4F3120476
:1027A0002543C0F8105BD0F8104B44F40024C0F867
:1027B000104B45E7D3F8104B8D68C5F312052C4339
:1027C000C3F8104BD3F8104B44F4002436E7CA6822
:1027D0000AB1C3F8142B097901290CD1D0F80808E3
:1027E000C005D3F8000B02D440F0005001E040F0E7
:1027F0008050C3F8000BD3F8000B40F00440C3F83E
:10280000000B0020F8BD0000FFFF07E038B50022F4
:10281000009213464D780A7842F2107400EB42128F
:10282000012D19D0D2F8005B002D3CDAD2F8005B04
:1028300045F00065C2F8005B0A7800EB4212D2F85E
:10284000005B45F08045C2F8005B009A521C009284
:10285000A24221D9012326E0D2F80059002D22DA24
:10286000D2F8005945F00065C2F800590A7800EB2B
:102870004212D2F8005945F08045C2F80059009A3A
:10288000521C0092A242E5D80A7800EB4212D2F81C
:102890000029002AF3DB06E00A7800EB4212D2F8A6
:1028A000002B002AD1DB184638BD18B500224FF0A6
:1028B00070630092009C641C00949C420CD80469D4
:1028C000002CF7DA0092202242EA8111016100997E
:1028D000491C0091994201D9032018BD016989065C
:1028E000F5D4002018BDD0F8080810F0060004D078
:1028F000022803D0062801D00F207047022070471D
:10290000406900F001007047D0F81818D0F81C0892
:10291000084080B27047D0F81818D0F81C0808405A
:10292000000C704710B5D0F81038D0F8342801F0FA
:102930000F0400EB4110E24002F00102D0F8080958
:1029400043EAC212104010BD00EB4111D1F8081B40
:10295000D0F8140808407047416980690840704702
:1029600030B503460846940802F00301002203F53F
:10297000805303E01D6840F8045B521CA242F9D367
:1029800000290BD01C680022D50024FA05F3491E4B
:10299000521C090400F8013B090CF5D130BDD0F8F8
:1029A000002822F4FE62C0F80028D0F800284FF476
:1029B000FE6303EA01110A43C0F8002800207047B3
:1029C000022A3ED1264A274B0A449A4201D20F21BD
:1029D00038E0254A254B0A449A4201D20E2131E0C3
:1029E000234A244B0A449A4201D20D212AE0224A6A
:1029F000224B0A449A4201D20C2123E0204A214B67
:102A00000A449A4201D20B211CE01F4A1F4B0A4480
:102A10009A4201D20A2115E01D4A1E4B0A449A42ED
:102A20000FD31D4A1D4B0A449A4201D2082109E0E6
:102A30001B4A11441B4A914201D2072102E00621A0
:102A400000E00921C26822F47052C260C2684FF4EB
:102A5000705303EA81210A43C260002070470000DE
:102A6000405327FF00350C00401E1BFF40420F0063
:102A700000DC0BFF804F1200808CF9FE20D6130083
:102A800060B6E5FE60E3160000D3CEFE40771B0083
:102A9000C05BB3FEC091210000CA91FE20753800D2
:102AA000E05459FEE09C410010B5029C74B9DB1C57
:102AB0009C0800EB0230002300F5805004E000BFCA
:102AC00051F8042B02605B1CA342F9D3002010BD17
:102AD000FEE70907090E002804DB00F1E02080F87A
:102AE0000014704700F00F0000F1E02080F8141D82
:102AF0007047FDF775FEFEF7D7FFFEF785FEFEF780
:102B0000FDFDFEE74FF04070E1EE100A7047000651
:102B10001016000610160000000000000000010260
:102B20000304060708090000482B000800000020E5
:102B300014000000140200085C2B000814000020A0
:102B40003C100000300200080100000010000000EE
:0C2B5000000000000024F4000000000061
:04000005080001D915
:00000001FF
